{
  "transactions": [
    {
      "hash": "0x72be44334d77aac2cde65e7215284026ad7e56a073f4dfd5d1110307a29e1dd9",
      "transactionType": "CREATE",
      "contractName": "AaveInteraction",
      "contractAddress": "0xb1c4bbb65d345e52eadfdafd4c25a90d6272add8",
      "function": null,
      "arguments": [
        "0x012bAC54348C0E635dCAc9D5FB99f06F24136C9A"
      ],
      "transaction": {
        "from": "0xeb4dfb5452266c98e815960d75fe6f97a0a18dc5",
        "gas": "0xf05d2",
        "value": "0x0",
        "input": "0x60a060405234801561001057600080fd5b50604051610cde380380610cde83398101604081905261002f916100cd565b6001600160a01b03811660808190526040805163026b1d5f60e01b8152905163026b1d5f916004808201926020929091908290030181865afa158015610079573d6000803e3d6000fd5b505050506040513d601f19601f8201168201806040525081019061009d91906100cd565b600180546001600160a01b03929092166001600160a01b03199283161790556000805490911633179055506100fd565b6000602082840312156100df57600080fd5b81516001600160a01b03811681146100f657600080fd5b9392505050565b608051610bc661011860003960006101260152610bc66000f3fe6080604052600436106100915760003560e01c80638da5cb5b116100595780638da5cb5b1461016857806394bf6fa714610188578063c1bce0b7146101a8578063f2b9fdb8146101c8578063f3fef3a3146101db57600080fd5b8063095ea7b31461009657806316f0115b146100b8578063732a52ee146100f45780638598f9c3146101145780638cd2e0c714610148575b600080fd5b3480156100a257600080fd5b506100b66100b13660046108c5565b6101fb565b005b3480156100c457600080fd5b506001546100d8906001600160a01b031681565b6040516001600160a01b03909116815260200160405180910390f35b34801561010057600080fd5b506100d861010f3660046108f1565b610277565b34801561012057600080fd5b506100d87f000000000000000000000000000000000000000000000000000000000000000081565b34801561015457600080fd5b506100b6610163366004610915565b6102f6565b34801561017457600080fd5b506000546100d8906001600160a01b031681565b34801561019457600080fd5b506100d86101a33660046108f1565b6103f9565b3480156101b457600080fd5b506100b66101c3366004610915565b610478565b6100b66101d63660046108c5565b610616565b3480156101e757600080fd5b506100b66101f63660046108c5565b61077d565b60015460405163095ea7b360e01b81526001600160a01b039182166004820152602481018390529083169063095ea7b3906044016020604051808303816000875af115801561024e573d6000803e3d6000fd5b505050506040513d601f19601f82011682018060405250810190610272919061094a565b505050565b6001546040516335ea6a7560e01b81526001600160a01b03838116600483015260009283929116906335ea6a75906024016101e060405180830381865afa1580156102c6573d6000803e3d6000fd5b505050506040513d601f19601f820116820180604052508101906102ea9190610a4b565b61010001519392505050565b60015460405163095ea7b360e01b81526001600160a01b039182166004820152602481018490529084169063095ea7b3906044016020604051808303816000875af1158015610349573d6000803e3d6000fd5b505050506040513d601f19601f8201168201806040525081019061036d919061094a565b5060015460405163573ade8160e01b81526001600160a01b03858116600483015260248201859052604482018490523360648301529091169063573ade81906084015b6020604051808303816000875af11580156103cf573d6000803e3d6000fd5b505050506040513d601f19601f820116820180604052508101906103f39190610b77565b50505050565b6001546040516335ea6a7560e01b81526001600160a01b03838116600483015260009283929116906335ea6a75906024016101e060405180830381865afa158015610448573d6000803e3d6000fd5b505050506040513d601f19601f8201168201806040525081019061046c9190610a4b565b61014001519392505050565b6001546040516335ea6a7560e01b81526001600160a01b03858116600483015260009216906335ea6a75906024016101e060405180830381865afa1580156104c4573d6000803e3d6000fd5b505050506040513d601f19601f820116820180604052508101906104e89190610a4b565b610140810151604051630c04a8a160e41b8152306004820152602481018690529192506001600160a01b03169063c04a8a1090604401600060405180830381600087803b15801561053857600080fd5b505af115801561054c573d6000803e3d6000fd5b505060015460405163a415bcad60e01b81526001600160a01b038881166004830152602482018890526044820187905260006064830152336084830152909116925063a415bcad915060a401600060405180830381600087803b1580156105b257600080fd5b505af11580156105c6573d6000803e3d6000fd5b505060408051868152602081018690526001600160a01b03881693503392507fc14e9e6b4d98a542b05a0f6b64acd5f4cbdb914be88432d87486b664e97071a7910160405180910390a350505050565b60015460405163095ea7b360e01b81526001600160a01b039182166004820152602481018390529083169063095ea7b3906044016020604051808303816000875af1158015610669573d6000803e3d6000fd5b505050506040513d601f19601f8201168201806040525081019061068d919061094a565b506040516323b872dd60e01b8152336004820152306024820152604481018290526001600160a01b038316906323b872dd906064016020604051808303816000875af11580156106e1573d6000803e3d6000fd5b505050506040513d601f19601f82011682018060405250810190610705919061094a565b5060015460405163617ba03760e01b81526001600160a01b03848116600483015260248201849052336044830152600060648301529091169063617ba03790608401600060405180830381600087803b15801561076157600080fd5b505af1158015610775573d6000803e3d6000fd5b505050505050565b6001546040516335ea6a7560e01b81526001600160a01b03848116600483015260009216906335ea6a75906024016101e060405180830381865afa1580156107c9573d6000803e3d6000fd5b505050506040513d601f19601f820116820180604052508101906107ed9190610a4b565b6101008101516040516323b872dd60e01b8152336004820152306024820152604481018590529192506001600160a01b0316906323b872dd906064016020604051808303816000875af1158015610848573d6000803e3d6000fd5b505050506040513d601f19601f8201168201806040525081019061086c919061094a565b50600154604051631a4ca37b60e21b81526001600160a01b0385811660048301526000196024830152336044830152909116906369328dec906064016103b0565b6001600160a01b03811681146108c257600080fd5b50565b600080604083850312156108d857600080fd5b82356108e3816108ad565b946020939093013593505050565b60006020828403121561090357600080fd5b813561090e816108ad565b9392505050565b60008060006060848603121561092a57600080fd5b8335610935816108ad565b95602085013595506040909401359392505050565b60006020828403121561095c57600080fd5b8151801515811461090e57600080fd5b6040516101e0810167ffffffffffffffff8111828210171561099e57634e487b7160e01b600052604160045260246000fd5b60405290565b6000602082840312156109b657600080fd5b6040516020810167ffffffffffffffff811182821017156109e757634e487b7160e01b600052604160045260246000fd5b6040529151825250919050565b80516fffffffffffffffffffffffffffffffff81168114610a1457600080fd5b919050565b805164ffffffffff81168114610a1457600080fd5b805161ffff81168114610a1457600080fd5b8051610a14816108ad565b60006101e0828403128015610a5f57600080fd5b50610a6861096c565b610a7284846109a4565b8152610a80602084016109f4565b6020820152610a91604084016109f4565b6040820152610aa2606084016109f4565b6060820152610ab3608084016109f4565b6080820152610ac460a084016109f4565b60a0820152610ad560c08401610a19565b60c0820152610ae660e08401610a2e565b60e0820152610af86101008401610a40565b610100820152610b0b6101208401610a40565b610120820152610b1e6101408401610a40565b610140820152610b316101608401610a40565b610160820152610b4461018084016109f4565b610180820152610b576101a084016109f4565b6101a0820152610b6a6101c084016109f4565b6101c08201529392505050565b600060208284031215610b8957600080fd5b505191905056fea264697066735822122017ebc30a66a94dce6a497213a7053786e5258a9af076bfa4ad5de7eec6f2395b64736f6c634300081b0033000000000000000000000000012bac54348c0e635dcac9d5fb99f06f24136c9a",
        "nonce": "0x5e",
        "chainId": "0xaa36a7"
      },
      "additionalContracts": [],
      "isFixedGasLimit": false
    },
    {
      "hash": "0x6963d4b3bc385315653b99cdda6388dc23f5e7b514b2bae666b328049c7f24e4",
      "transactionType": "CALL",
      "contractName": null,
      "contractAddress": "0xff34b3d4aee8ddcd6f9afffb6fe49bd371b8a357",
      "function": "approve(address,uint256)",
      "arguments": [
        "0xB1c4BBB65d345E52EaDfDafd4C25a90D6272Add8",
        "100000000000000000000"
      ],
      "transaction": {
        "from": "0xeb4dfb5452266c98e815960d75fe6f97a0a18dc5",
        "to": "0xff34b3d4aee8ddcd6f9afffb6fe49bd371b8a357",
        "gas": "0xf99c",
        "value": "0x0",
        "input": "0x095ea7b3000000000000000000000000b1c4bbb65d345e52eadfdafd4c25a90d6272add80000000000000000000000000000000000000000000000056bc75e2d63100000",
        "nonce": "0x5f",
        "chainId": "0xaa36a7"
      },
      "additionalContracts": [],
      "isFixedGasLimit": false
    },
    {
      "hash": "0x0d0e311d2f0f2e06cad11c3da6a36e83dcf7e8f0816837bda9ad6a0ccece8fe5",
      "transactionType": "CALL",
      "contractName": "AaveInteraction",
      "contractAddress": "0xb1c4bbb65d345e52eadfdafd4c25a90d6272add8",
      "function": "supply(address,uint256)",
      "arguments": [
        "0xFF34B3d4Aee8ddCd6F9AFFFB6Fe49bD371b8a357",
        "100000000000000000000"
      ],
      "transaction": {
        "from": "0xeb4dfb5452266c98e815960d75fe6f97a0a18dc5",
        "to": "0xb1c4bbb65d345e52eadfdafd4c25a90d6272add8",
        "gas": "0x42cb1",
        "value": "0x0",
        "input": "0xf2b9fdb8000000000000000000000000ff34b3d4aee8ddcd6f9afffb6fe49bd371b8a3570000000000000000000000000000000000000000000000056bc75e2d63100000",
        "nonce": "0x60",
        "chainId": "0xaa36a7"
      },
      "additionalContracts": [],
      "isFixedGasLimit": false
    },
    {
      "hash": "0x8725af93c254efff905bb816c3e5b12417042e99620d7e439a9e8b90177647c3",
      "transactionType": "CALL",
      "contractName": null,
      "contractAddress": "0x34a4d932e722b9dfb492b9d8131127690ce2430b",
      "function": "approveDelegation(address,uint256)",
      "arguments": [
        "0xB1c4BBB65d345E52EaDfDafd4C25a90D6272Add8",
        "115792089237316195423570985008687907853269984665640564039457584007913129639935"
      ],
      "transaction": {
        "from": "0xeb4dfb5452266c98e815960d75fe6f97a0a18dc5",
        "to": "0x34a4d932e722b9dfb492b9d8131127690ce2430b",
        "gas": "0x12345",
        "value": "0x0",
        "input": "0xc04a8a10000000000000000000000000b1c4bbb65d345e52eadfdafd4c25a90d6272add8ffffffffffffffffffffffffffffffffffffffffffffffffffffffffffffffff",
        "nonce": "0x61",
        "chainId": "0xaa36a7"
      },
      "additionalContracts": [],
      "isFixedGasLimit": false
    },
    {
      "hash": "0xe2871e480e81431cd9c65f28fe4674f16a1286c4ad3964ebc690a651e595016d",
      "transactionType": "CALL",
      "contractName": "AaveInteraction",
      "contractAddress": "0xb1c4bbb65d345e52eadfdafd4c25a90d6272add8",
      "function": "borrow(address,uint256,uint256)",
      "arguments": [
        "0xf8Fb3713D459D7C1018BD0A49D19b4C44290EBE5",
        "1000000000000000000",
        "2"
      ],
      "transaction": {
        "from": "0xeb4dfb5452266c98e815960d75fe6f97a0a18dc5",
        "to": "0xb1c4bbb65d345e52eadfdafd4c25a90d6272add8",
        "gas": "0x7ea87",
        "value": "0x0",
        "input": "0xc1bce0b7000000000000000000000000f8fb3713d459d7c1018bd0a49d19b4c44290ebe50000000000000000000000000000000000000000000000000de0b6b3a76400000000000000000000000000000000000000000000000000000000000000000002",
        "nonce": "0x62",
        "chainId": "0xaa36a7"
      },
      "additionalContracts": [],
      "isFixedGasLimit": false
    },
    {
      "hash": "0xe6ceb8a36fc3141a61a684f2b6f0e179472af8d3ad8a00a1d3837c0defab237b",
      "transactionType": "CALL",
      "contractName": "AaveInteraction",
      "contractAddress": "0xb1c4bbb65d345e52eadfdafd4c25a90d6272add8",
      "function": "repay(address,uint256,uint256)",
      "arguments": [
        "0xf8Fb3713D459D7C1018BD0A49D19b4C44290EBE5",
        "1000000000000000000",
        "2"
      ],
      "transaction": {
        "from": "0xeb4dfb5452266c98e815960d75fe6f97a0a18dc5",
        "to": "0xb1c4bbb65d345e52eadfdafd4c25a90d6272add8",
        "gas": "0x3ddf1",
        "value": "0x0",
        "input": "0x8cd2e0c7000000000000000000000000f8fb3713d459d7c1018bd0a49d19b4c44290ebe50000000000000000000000000000000000000000000000000de0b6b3a76400000000000000000000000000000000000000000000000000000000000000000002",
        "nonce": "0x63",
        "chainId": "0xaa36a7"
      },
      "additionalContracts": [],
      "isFixedGasLimit": false
    },
    {
      "hash": "0xbcc5c4b982df46dc5133041871f5965df01bbfb2001b84d136187443dfb65b74",
      "transactionType": "CALL",
      "contractName": null,
      "contractAddress": "0x29598b72eb5cebd806c5dcd549490fda35b13cd8",
      "function": "approve(address,uint256)",
      "arguments": [
        "0xB1c4BBB65d345E52EaDfDafd4C25a90D6272Add8",
        "115792089237316195423570985008687907853269984665640564039457584007913129639935"
      ],
      "transaction": {
        "from": "0xeb4dfb5452266c98e815960d75fe6f97a0a18dc5",
        "to": "0x29598b72eb5cebd806c5dcd549490fda35b13cd8",
        "gas": "0x11609",
        "value": "0x0",
        "input": "0x095ea7b3000000000000000000000000b1c4bbb65d345e52eadfdafd4c25a90d6272add8ffffffffffffffffffffffffffffffffffffffffffffffffffffffffffffffff",
        "nonce": "0x64",
        "chainId": "0xaa36a7"
      },
      "additionalContracts": [],
      "isFixedGasLimit": false
    },
    {
      "hash": "0x42caa7c133ed7b4ad2b2affe8169596758e556b8b4cb66546b917ad283359625",
      "transactionType": "CALL",
      "contractName": "AaveInteraction",
      "contractAddress": "0xb1c4bbb65d345e52eadfdafd4c25a90d6272add8",
      "function": "withdraw(address,uint256)",
      "arguments": [
        "0xFF34B3d4Aee8ddCd6F9AFFFB6Fe49bD371b8a357",
        "100000000000000000000"
      ],
      "transaction": {
        "from": "0xeb4dfb5452266c98e815960d75fe6f97a0a18dc5",
        "to": "0xb1c4bbb65d345e52eadfdafd4c25a90d6272add8",
        "gas": "0x8581f",
        "value": "0x0",
        "input": "0xf3fef3a3000000000000000000000000ff34b3d4aee8ddcd6f9afffb6fe49bd371b8a3570000000000000000000000000000000000000000000000056bc75e2d63100000",
        "nonce": "0x65",
        "chainId": "0xaa36a7"
      },
      "additionalContracts": [],
      "isFixedGasLimit": false
    }
  ],
  "receipts": [
    {
      "status": "0x1",
      "cumulativeGasUsed": "0xf80f80",
      "logs": [],
      "logsBloom": "0x00000000000000000000000000000000000000000000000000000000000000000000000000000000000000000000000000000000000000000000000000000000000000000000000000000000000000000000000000000000000000000000000000000000000000000000000000000000000000000000000000000000000000000000000000000000000000000000000000000000000000000000000000000000000000000000000000000000000000000000000000000000000000000000000000000000000000000000000000000000000000000000000000000000000000000000000000000000000000000000000000000000000000000000000000000000",
      "type": "0x2",
      "transactionHash": "0x72be44334d77aac2cde65e7215284026ad7e56a073f4dfd5d1110307a29e1dd9",
      "transactionIndex": "0x46",
      "blockHash": "0x3868b8782e8acb41a02f640cd6b996c7113bb8a4e6d23252dac9a7e129c30671",
      "blockNumber": "0x6c6137",
      "gasUsed": "0xb8f23",
      "effectiveGasPrice": "0x5b08bd23",
      "from": "0xeb4dfb5452266c98e815960d75fe6f97a0a18dc5",
      "to": null,
      "contractAddress": "0xb1c4bbb65d345e52eadfdafd4c25a90d6272add8"
    },
    {
      "status": "0x1",
      "cumulativeGasUsed": "0xf8c437",
      "logs": [
        {
          "address": "0xff34b3d4aee8ddcd6f9afffb6fe49bd371b8a357",
          "topics": [
            "0x8c5be1e5ebec7d5bd14f71427d1e84f3dd0314c0f7b2291e5b200ac8c7c3b925",
            "0x000000000000000000000000eb4dfb5452266c98e815960d75fe6f97a0a18dc5",
            "0x000000000000000000000000b1c4bbb65d345e52eadfdafd4c25a90d6272add8"
          ],
          "data": "0x0000000000000000000000000000000000000000000000056bc75e2d63100000",
          "blockHash": "0x3868b8782e8acb41a02f640cd6b996c7113bb8a4e6d23252dac9a7e129c30671",
          "blockNumber": "0x6c6137",
          "transactionHash": "0x6963d4b3bc385315653b99cdda6388dc23f5e7b514b2bae666b328049c7f24e4",
          "transactionIndex": "0x47",
          "logIndex": "0x49",
          "removed": false
        }
      ],
      "logsBloom": "0x00000000000000000000000200000000000000000000000000000001000000000000000000000000000000008080000000000000000008000000000000200000000000000000000000000000000000000000000000000000000000000000000000000000000000000000000000000000000000000000000000000000000000000000000400000000000000000000000000000000000000000000000000000000020000000000000000000000000000000000000800000000000000000000000000000000000000000000000000000000000000000000000000000000000000000010000000000400000000000000000000000000000000000000000000010000",
      "type": "0x2",
      "transactionHash": "0x6963d4b3bc385315653b99cdda6388dc23f5e7b514b2bae666b328049c7f24e4",
      "transactionIndex": "0x47",
      "blockHash": "0x3868b8782e8acb41a02f640cd6b996c7113bb8a4e6d23252dac9a7e129c30671",
      "blockNumber": "0x6c6137",
      "gasUsed": "0xb4b7",
      "effectiveGasPrice": "0x5b08bd23",
      "from": "0xeb4dfb5452266c98e815960d75fe6f97a0a18dc5",
      "to": "0xff34b3d4aee8ddcd6f9afffb6fe49bd371b8a357",
      "contractAddress": null
    },
    {
      "status": "0x1",
      "cumulativeGasUsed": "0xfb9ef2",
      "logs": [
        {
          "address": "0xff34b3d4aee8ddcd6f9afffb6fe49bd371b8a357",
          "topics": [
            "0x8c5be1e5ebec7d5bd14f71427d1e84f3dd0314c0f7b2291e5b200ac8c7c3b925",
            "0x000000000000000000000000b1c4bbb65d345e52eadfdafd4c25a90d6272add8",
            "0x0000000000000000000000006ae43d3271ff6888e7fc43fd7321a503ff738951"
          ],
          "data": "0x0000000000000000000000000000000000000000000000056bc75e2d63100000",
          "blockHash": "0x3868b8782e8acb41a02f640cd6b996c7113bb8a4e6d23252dac9a7e129c30671",
          "blockNumber": "0x6c6137",
          "transactionHash": "0x0d0e311d2f0f2e06cad11c3da6a36e83dcf7e8f0816837bda9ad6a0ccece8fe5",
          "transactionIndex": "0x48",
          "logIndex": "0x4a",
          "removed": false
        },
        {
          "address": "0xff34b3d4aee8ddcd6f9afffb6fe49bd371b8a357",
          "topics": [
            "0xddf252ad1be2c89b69c2b068fc378daa952ba7f163c4a11628f55a4df523b3ef",
            "0x000000000000000000000000eb4dfb5452266c98e815960d75fe6f97a0a18dc5",
            "0x000000000000000000000000b1c4bbb65d345e52eadfdafd4c25a90d6272add8"
          ],
          "data": "0x0000000000000000000000000000000000000000000000056bc75e2d63100000",
          "blockHash": "0x3868b8782e8acb41a02f640cd6b996c7113bb8a4e6d23252dac9a7e129c30671",
          "blockNumber": "0x6c6137",
          "transactionHash": "0x0d0e311d2f0f2e06cad11c3da6a36e83dcf7e8f0816837bda9ad6a0ccece8fe5",
          "transactionIndex": "0x48",
          "logIndex": "0x4b",
          "removed": false
        },
        {
          "address": "0xff34b3d4aee8ddcd6f9afffb6fe49bd371b8a357",
          "topics": [
            "0x8c5be1e5ebec7d5bd14f71427d1e84f3dd0314c0f7b2291e5b200ac8c7c3b925",
            "0x000000000000000000000000eb4dfb5452266c98e815960d75fe6f97a0a18dc5",
            "0x000000000000000000000000b1c4bbb65d345e52eadfdafd4c25a90d6272add8"
          ],
          "data": "0x0000000000000000000000000000000000000000000000000000000000000000",
          "blockHash": "0x3868b8782e8acb41a02f640cd6b996c7113bb8a4e6d23252dac9a7e129c30671",
          "blockNumber": "0x6c6137",
          "transactionHash": "0x0d0e311d2f0f2e06cad11c3da6a36e83dcf7e8f0816837bda9ad6a0ccece8fe5",
          "transactionIndex": "0x48",
          "logIndex": "0x4c",
          "removed": false
        },
        {
          "address": "0x6ae43d3271ff6888e7fc43fd7321a503ff738951",
          "topics": [
            "0x804c9b842b2748a22bb64b345453a3de7ca54a6ca45ce00d415894979e22897a",
            "0x000000000000000000000000ff34b3d4aee8ddcd6f9afffb6fe49bd371b8a357"
          ],
          "data": "0x0000000000000000000000000000000000000000021e08f28d6ff6dbc7b9fcb3000000000000000000000000000000000000000002720d14d1c443bb1aec660100000000000000000000000000000000000000000265a4b530a641ceabec6601000000000000000000000000000000000000000003f7813ebb9323a3f764e6290000000000000000000000000000000000000000041efe415a9476a2d843f351",
          "blockHash": "0x3868b8782e8acb41a02f640cd6b996c7113bb8a4e6d23252dac9a7e129c30671",
          "blockNumber": "0x6c6137",
          "transactionHash": "0x0d0e311d2f0f2e06cad11c3da6a36e83dcf7e8f0816837bda9ad6a0ccece8fe5",
          "transactionIndex": "0x48",
          "logIndex": "0x4d",
          "removed": false
        },
        {
          "address": "0xff34b3d4aee8ddcd6f9afffb6fe49bd371b8a357",
          "topics": [
            "0xddf252ad1be2c89b69c2b068fc378daa952ba7f163c4a11628f55a4df523b3ef",
            "0x000000000000000000000000b1c4bbb65d345e52eadfdafd4c25a90d6272add8",
            "0x00000000000000000000000029598b72eb5cebd806c5dcd549490fda35b13cd8"
          ],
          "data": "0x0000000000000000000000000000000000000000000000056bc75e2d63100000",
          "blockHash": "0x3868b8782e8acb41a02f640cd6b996c7113bb8a4e6d23252dac9a7e129c30671",
          "blockNumber": "0x6c6137",
          "transactionHash": "0x0d0e311d2f0f2e06cad11c3da6a36e83dcf7e8f0816837bda9ad6a0ccece8fe5",
          "transactionIndex": "0x48",
          "logIndex": "0x4e",
          "removed": false
        },
        {
          "address": "0xff34b3d4aee8ddcd6f9afffb6fe49bd371b8a357",
          "topics": [
            "0x8c5be1e5ebec7d5bd14f71427d1e84f3dd0314c0f7b2291e5b200ac8c7c3b925",
            "0x000000000000000000000000b1c4bbb65d345e52eadfdafd4c25a90d6272add8",
            "0x0000000000000000000000006ae43d3271ff6888e7fc43fd7321a503ff738951"
          ],
          "data": "0x0000000000000000000000000000000000000000000000000000000000000000",
          "blockHash": "0x3868b8782e8acb41a02f640cd6b996c7113bb8a4e6d23252dac9a7e129c30671",
          "blockNumber": "0x6c6137",
          "transactionHash": "0x0d0e311d2f0f2e06cad11c3da6a36e83dcf7e8f0816837bda9ad6a0ccece8fe5",
          "transactionIndex": "0x48",
          "logIndex": "0x4f",
          "removed": false
        },
        {
          "address": "0x29598b72eb5cebd806c5dcd549490fda35b13cd8",
          "topics": [
            "0xddf252ad1be2c89b69c2b068fc378daa952ba7f163c4a11628f55a4df523b3ef",
            "0x0000000000000000000000000000000000000000000000000000000000000000",
            "0x000000000000000000000000eb4dfb5452266c98e815960d75fe6f97a0a18dc5"
          ],
          "data": "0x0000000000000000000000000000000000000000000000056be1d883b6bb41de",
          "blockHash": "0x3868b8782e8acb41a02f640cd6b996c7113bb8a4e6d23252dac9a7e129c30671",
          "blockNumber": "0x6c6137",
          "transactionHash": "0x0d0e311d2f0f2e06cad11c3da6a36e83dcf7e8f0816837bda9ad6a0ccece8fe5",
          "transactionIndex": "0x48",
          "logIndex": "0x50",
          "removed": false
        },
        {
          "address": "0x29598b72eb5cebd806c5dcd549490fda35b13cd8",
          "topics": [
            "0x458f5fa412d0f69b08dd84872b0215675cc67bc1d5b6fd93300a1c3878b86196",
            "0x000000000000000000000000b1c4bbb65d345e52eadfdafd4c25a90d6272add8",
            "0x000000000000000000000000eb4dfb5452266c98e815960d75fe6f97a0a18dc5"
          ],
          "data": "0x0000000000000000000000000000000000000000000000056be1d883b6bb41de000000000000000000000000000000000000000000000000001a7a5653ab41de000000000000000000000000000000000000000003f7813ebb9323a3f764e629",
          "blockHash": "0x3868b8782e8acb41a02f640cd6b996c7113bb8a4e6d23252dac9a7e129c30671",
          "blockNumber": "0x6c6137",
          "transactionHash": "0x0d0e311d2f0f2e06cad11c3da6a36e83dcf7e8f0816837bda9ad6a0ccece8fe5",
          "transactionIndex": "0x48",
          "logIndex": "0x51",
          "removed": false
        },
        {
          "address": "0x6ae43d3271ff6888e7fc43fd7321a503ff738951",
          "topics": [
            "0x2b627736bca15cd5381dcf80b0bf11fd197d01a037c52b927a881a10fb73ba61",
            "0x000000000000000000000000ff34b3d4aee8ddcd6f9afffb6fe49bd371b8a357",
            "0x000000000000000000000000eb4dfb5452266c98e815960d75fe6f97a0a18dc5",
            "0x0000000000000000000000000000000000000000000000000000000000000000"
          ],
          "data": "0x000000000000000000000000b1c4bbb65d345e52eadfdafd4c25a90d6272add80000000000000000000000000000000000000000000000056bc75e2d63100000",
          "blockHash": "0x3868b8782e8acb41a02f640cd6b996c7113bb8a4e6d23252dac9a7e129c30671",
          "blockNumber": "0x6c6137",
          "transactionHash": "0x0d0e311d2f0f2e06cad11c3da6a36e83dcf7e8f0816837bda9ad6a0ccece8fe5",
          "transactionIndex": "0x48",
          "logIndex": "0x52",
          "removed": false
        }
      ],
      "logsBloom": "0x000000000000000000000002000000000000008000008000000000010000000000000000000000000000000080840000000400000020080000000000002000000000000000000000000000080800000000000000000000000000a0040000200000000000020000000000000000000800000000000000000000000010000000002000000401000000000000000000000000200000000000000000000000000000020000000000000000000000000000000000000800000000000000000002010002000002000010000000002040000000000000000000000000000000000020000010000000000400000000000000000040000000000001000000400000010000",
      "type": "0x2",
      "transactionHash": "0x0d0e311d2f0f2e06cad11c3da6a36e83dcf7e8f0816837bda9ad6a0ccece8fe5",
      "transactionIndex": "0x48",
      "blockHash": "0x3868b8782e8acb41a02f640cd6b996c7113bb8a4e6d23252dac9a7e129c30671",
      "blockNumber": "0x6c6137",
      "gasUsed": "0x2dabb",
      "effectiveGasPrice": "0x5b08bd23",
      "from": "0xeb4dfb5452266c98e815960d75fe6f97a0a18dc5",
      "to": "0xb1c4bbb65d345e52eadfdafd4c25a90d6272add8",
      "contractAddress": null
    },
    {
      "status": "0x1",
      "cumulativeGasUsed": "0xfc71d2",
      "logs": [
        {
          "address": "0x34a4d932e722b9dfb492b9d8131127690ce2430b",
          "topics": [
            "0xda919360433220e13b51e8c211e490d148e61a3bd53de8c097194e458b97f3e1",
            "0x000000000000000000000000eb4dfb5452266c98e815960d75fe6f97a0a18dc5",
            "0x000000000000000000000000b1c4bbb65d345e52eadfdafd4c25a90d6272add8",
            "0x000000000000000000000000f8fb3713d459d7c1018bd0a49d19b4c44290ebe5"
          ],
          "data": "0xffffffffffffffffffffffffffffffffffffffffffffffffffffffffffffffff",
          "blockHash": "0x3868b8782e8acb41a02f640cd6b996c7113bb8a4e6d23252dac9a7e129c30671",
          "blockNumber": "0x6c6137",
          "transactionHash": "0x8725af93c254efff905bb816c3e5b12417042e99620d7e439a9e8b90177647c3",
          "transactionIndex": "0x49",
          "logIndex": "0x53",
          "removed": false
        }
      ],
      "logsBloom": "0x00020000000000000000000000000000000000000000000000000001000000000000000040000000000000008080000000000000000008000000000000000000000000000001000000000000000000000000000000000000000000000000100000000000000020000000000000000000000000000000000000000000000000000000000400000000000000000000000000000000000000000000000000000000000000000000020000000000800000000000000000000000000000000000000000000000000000000000000000000000004000000000000000000000000000000000000000000400000000000000000100000000000000000000000000000000",
      "type": "0x2",
      "transactionHash": "0x8725af93c254efff905bb816c3e5b12417042e99620d7e439a9e8b90177647c3",
      "transactionIndex": "0x49",
      "blockHash": "0x3868b8782e8acb41a02f640cd6b996c7113bb8a4e6d23252dac9a7e129c30671",
      "blockNumber": "0x6c6137",
      "gasUsed": "0xd2e0",
      "effectiveGasPrice": "0x5b08bd23",
      "from": "0xeb4dfb5452266c98e815960d75fe6f97a0a18dc5",
      "to": "0x34a4d932e722b9dfb492b9d8131127690ce2430b",
      "contractAddress": null
    },
    {
      "status": "0x1",
      "cumulativeGasUsed": "0x1022cfe",
      "logs": [
        {
          "address": "0x34a4d932e722b9dfb492b9d8131127690ce2430b",
          "topics": [
            "0xda919360433220e13b51e8c211e490d148e61a3bd53de8c097194e458b97f3e1",
            "0x000000000000000000000000b1c4bbb65d345e52eadfdafd4c25a90d6272add8",
            "0x000000000000000000000000b1c4bbb65d345e52eadfdafd4c25a90d6272add8",
            "0x000000000000000000000000f8fb3713d459d7c1018bd0a49d19b4c44290ebe5"
          ],
          "data": "0x0000000000000000000000000000000000000000000000000de0b6b3a7640000",
          "blockHash": "0x3868b8782e8acb41a02f640cd6b996c7113bb8a4e6d23252dac9a7e129c30671",
          "blockNumber": "0x6c6137",
          "transactionHash": "0xe2871e480e81431cd9c65f28fe4674f16a1286c4ad3964ebc690a651e595016d",
          "transactionIndex": "0x4a",
          "logIndex": "0x54",
          "removed": false
        },
        {
          "address": "0x34a4d932e722b9dfb492b9d8131127690ce2430b",
          "topics": [
            "0xda919360433220e13b51e8c211e490d148e61a3bd53de8c097194e458b97f3e1",
            "0x000000000000000000000000eb4dfb5452266c98e815960d75fe6f97a0a18dc5",
            "0x000000000000000000000000b1c4bbb65d345e52eadfdafd4c25a90d6272add8",
            "0x000000000000000000000000f8fb3713d459d7c1018bd0a49d19b4c44290ebe5"
          ],
          "data": "0xfffffffffffffffffffffffffffffffffffffffffffffffff21f494c589bffff",
          "blockHash": "0x3868b8782e8acb41a02f640cd6b996c7113bb8a4e6d23252dac9a7e129c30671",
          "blockNumber": "0x6c6137",
          "transactionHash": "0xe2871e480e81431cd9c65f28fe4674f16a1286c4ad3964ebc690a651e595016d",
          "transactionIndex": "0x4a",
          "logIndex": "0x55",
          "removed": false
        },
        {
          "address": "0x34a4d932e722b9dfb492b9d8131127690ce2430b",
          "topics": [
            "0xddf252ad1be2c89b69c2b068fc378daa952ba7f163c4a11628f55a4df523b3ef",
            "0x0000000000000000000000000000000000000000000000000000000000000000",
            "0x000000000000000000000000eb4dfb5452266c98e815960d75fe6f97a0a18dc5"
          ],
          "data": "0x0000000000000000000000000000000000000000000000000de0cb1c95a92f86",
          "blockHash": "0x3868b8782e8acb41a02f640cd6b996c7113bb8a4e6d23252dac9a7e129c30671",
          "blockNumber": "0x6c6137",
          "transactionHash": "0xe2871e480e81431cd9c65f28fe4674f16a1286c4ad3964ebc690a651e595016d",
          "transactionIndex": "0x4a",
          "logIndex": "0x56",
          "removed": false
        },
        {
          "address": "0x34a4d932e722b9dfb492b9d8131127690ce2430b",
          "topics": [
            "0x458f5fa412d0f69b08dd84872b0215675cc67bc1d5b6fd93300a1c3878b86196",
            "0x000000000000000000000000b1c4bbb65d345e52eadfdafd4c25a90d6272add8",
            "0x000000000000000000000000eb4dfb5452266c98e815960d75fe6f97a0a18dc5"
          ],
          "data": "0x0000000000000000000000000000000000000000000000000de0cb1c95a92f8600000000000000000000000000000000000000000000000000001468ee452f86000000000000000000000000000000000000000008759953f4640abd7380a4b0",
          "blockHash": "0x3868b8782e8acb41a02f640cd6b996c7113bb8a4e6d23252dac9a7e129c30671",
          "blockNumber": "0x6c6137",
          "transactionHash": "0xe2871e480e81431cd9c65f28fe4674f16a1286c4ad3964ebc690a651e595016d",
          "transactionIndex": "0x4a",
          "logIndex": "0x57",
          "removed": false
        },
        {
          "address": "0x6ae43d3271ff6888e7fc43fd7321a503ff738951",
          "topics": [
            "0x804c9b842b2748a22bb64b345453a3de7ca54a6ca45ce00d415894979e22897a",
            "0x000000000000000000000000f8fb3713d459d7c1018bd0a49d19b4c44290ebe5"
          ],
          "data": "0x000000000000000000000000000000000000000000399c532fadd6c9481a222e000000000000000000000000000000000000000000e353127cdc39dfd2125eb600000000000000000000000000000000000000000098e0d4b6282e5538125eb6000000000000000000000000000000000000000005b5f2ea90cb796bd96be8c6000000000000000000000000000000000000000008759953f4640abd7380a4b0",
          "blockHash": "0x3868b8782e8acb41a02f640cd6b996c7113bb8a4e6d23252dac9a7e129c30671",
          "blockNumber": "0x6c6137",
          "transactionHash": "0xe2871e480e81431cd9c65f28fe4674f16a1286c4ad3964ebc690a651e595016d",
          "transactionIndex": "0x4a",
          "logIndex": "0x58",
          "removed": false
        },
        {
          "address": "0xf8fb3713d459d7c1018bd0a49d19b4c44290ebe5",
          "topics": [
            "0xddf252ad1be2c89b69c2b068fc378daa952ba7f163c4a11628f55a4df523b3ef",
            "0x0000000000000000000000003ffaf50d4f4e96eb78f2407c090b72e86ecaed24",
            "0x000000000000000000000000b1c4bbb65d345e52eadfdafd4c25a90d6272add8"
          ],
          "data": "0x0000000000000000000000000000000000000000000000000de0b6b3a7640000",
          "blockHash": "0x3868b8782e8acb41a02f640cd6b996c7113bb8a4e6d23252dac9a7e129c30671",
          "blockNumber": "0x6c6137",
          "transactionHash": "0xe2871e480e81431cd9c65f28fe4674f16a1286c4ad3964ebc690a651e595016d",
          "transactionIndex": "0x4a",
          "logIndex": "0x59",
          "removed": false
        },
        {
          "address": "0x6ae43d3271ff6888e7fc43fd7321a503ff738951",
          "topics": [
            "0xb3d084820fb1a9decffb176436bd02558d15fac9b0ddfed8c465bc7359d7dce0",
            "0x000000000000000000000000f8fb3713d459d7c1018bd0a49d19b4c44290ebe5",
            "0x000000000000000000000000eb4dfb5452266c98e815960d75fe6f97a0a18dc5",
            "0x0000000000000000000000000000000000000000000000000000000000000000"
          ],
          "data": "0x000000000000000000000000b1c4bbb65d345e52eadfdafd4c25a90d6272add80000000000000000000000000000000000000000000000000de0b6b3a7640000000000000000000000000000000000000000000000000000000000000000000200000000000000000000000000000000000000000098e0d4b6282e5538125eb6",
          "blockHash": "0x3868b8782e8acb41a02f640cd6b996c7113bb8a4e6d23252dac9a7e129c30671",
          "blockNumber": "0x6c6137",
          "transactionHash": "0xe2871e480e81431cd9c65f28fe4674f16a1286c4ad3964ebc690a651e595016d",
          "transactionIndex": "0x4a",
          "logIndex": "0x5a",
          "removed": false
        },
        {
          "address": "0xb1c4bbb65d345e52eadfdafd4c25a90d6272add8",
          "topics": [
            "0xc14e9e6b4d98a542b05a0f6b64acd5f4cbdb914be88432d87486b664e97071a7",
            "0x000000000000000000000000eb4dfb5452266c98e815960d75fe6f97a0a18dc5",
            "0x000000000000000000000000f8fb3713d459d7c1018bd0a49d19b4c44290ebe5"
          ],
          "data": "0x0000000000000000000000000000000000000000000000000de0b6b3a76400000000000000000000000000000000000000000000000000000000000000000002",
          "blockHash": "0x3868b8782e8acb41a02f640cd6b996c7113bb8a4e6d23252dac9a7e129c30671",
          "blockNumber": "0x6c6137",
          "transactionHash": "0xe2871e480e81431cd9c65f28fe4674f16a1286c4ad3964ebc690a651e595016d",
          "transactionIndex": "0x4a",
          "logIndex": "0x5b",
          "removed": false
        }
      ],
      "logsBloom": "0x00020000000000000000000000000000000000000000000000000001000000800000000040000000000000008084000000000000002008020000000000000000000000000001000000000008000000000000020000000000000000040020100000000000020020000000000000000c00000000000000000008000010400000000000000401000000000000000000000000200000000000000000000000000000000000000000020000000000808000000000000000000000000000000000030002000002000001000000002000008000004000000000040000000000000020000000000000000400000000000001000100000000004800000000000000000000",
      "type": "0x2",
      "transactionHash": "0xe2871e480e81431cd9c65f28fe4674f16a1286c4ad3964ebc690a651e595016d",
      "transactionIndex": "0x4a",
      "blockHash": "0x3868b8782e8acb41a02f640cd6b996c7113bb8a4e6d23252dac9a7e129c30671",
      "blockNumber": "0x6c6137",
      "gasUsed": "0x5bb2c",
      "effectiveGasPrice": "0x5b08bd23",
      "from": "0xeb4dfb5452266c98e815960d75fe6f97a0a18dc5",
      "to": "0xb1c4bbb65d345e52eadfdafd4c25a90d6272add8",
      "contractAddress": null
    },
    {
      "status": "0x1",
      "cumulativeGasUsed": "0x104d1e1",
      "logs": [
        {
          "address": "0xf8fb3713d459d7c1018bd0a49d19b4c44290ebe5",
          "topics": [
            "0x8c5be1e5ebec7d5bd14f71427d1e84f3dd0314c0f7b2291e5b200ac8c7c3b925",
            "0x000000000000000000000000b1c4bbb65d345e52eadfdafd4c25a90d6272add8",
            "0x0000000000000000000000006ae43d3271ff6888e7fc43fd7321a503ff738951"
          ],
          "data": "0x0000000000000000000000000000000000000000000000000de0b6b3a7640000",
          "blockHash": "0x3868b8782e8acb41a02f640cd6b996c7113bb8a4e6d23252dac9a7e129c30671",
          "blockNumber": "0x6c6137",
          "transactionHash": "0xe6ceb8a36fc3141a61a684f2b6f0e179472af8d3ad8a00a1d3837c0defab237b",
          "transactionIndex": "0x4b",
          "logIndex": "0x5c",
          "removed": false
        },
        {
          "address": "0x34a4d932e722b9dfb492b9d8131127690ce2430b",
          "topics": [
            "0xddf252ad1be2c89b69c2b068fc378daa952ba7f163c4a11628f55a4df523b3ef",
            "0x000000000000000000000000eb4dfb5452266c98e815960d75fe6f97a0a18dc5",
            "0x0000000000000000000000000000000000000000000000000000000000000000"
          ],
          "data": "0x0000000000000000000000000000000000000000000000000de0b6b3a7640000",
          "blockHash": "0x3868b8782e8acb41a02f640cd6b996c7113bb8a4e6d23252dac9a7e129c30671",
          "blockNumber": "0x6c6137",
          "transactionHash": "0xe6ceb8a36fc3141a61a684f2b6f0e179472af8d3ad8a00a1d3837c0defab237b",
          "transactionIndex": "0x4b",
          "logIndex": "0x5d",
          "removed": false
        },
        {
          "address": "0x34a4d932e722b9dfb492b9d8131127690ce2430b",
          "topics": [
            "0x4cf25bc1d991c17529c25213d3cc0cda295eeaad5f13f361969b12ea48015f90",
            "0x000000000000000000000000eb4dfb5452266c98e815960d75fe6f97a0a18dc5",
            "0x0000000000000000000000000000000000000000000000000000000000000000"
          ],
          "data": "0x0000000000000000000000000000000000000000000000000de0b6b3a76400000000000000000000000000000000000000000000000000000000000000000000000000000000000000000000000000000000000008759953f4640abd7380a4b0",
          "blockHash": "0x3868b8782e8acb41a02f640cd6b996c7113bb8a4e6d23252dac9a7e129c30671",
          "blockNumber": "0x6c6137",
          "transactionHash": "0xe6ceb8a36fc3141a61a684f2b6f0e179472af8d3ad8a00a1d3837c0defab237b",
          "transactionIndex": "0x4b",
          "logIndex": "0x5e",
          "removed": false
        },
        {
          "address": "0x6ae43d3271ff6888e7fc43fd7321a503ff738951",
          "topics": [
            "0x804c9b842b2748a22bb64b345453a3de7ca54a6ca45ce00d415894979e22897a",
            "0x000000000000000000000000f8fb3713d459d7c1018bd0a49d19b4c44290ebe5"
          ],
          "data": "0x000000000000000000000000000000000000000000399c2117f2c255d4480b2e000000000000000000000000000000000000000000e352967abdd267a8c8967700000000000000000000000000000000000000000098e058b409c6dd0ec89677000000000000000000000000000000000000000005b5f2ea90cb796bd96be8c6000000000000000000000000000000000000000008759953f4640abd7380a4b0",
          "blockHash": "0x3868b8782e8acb41a02f640cd6b996c7113bb8a4e6d23252dac9a7e129c30671",
          "blockNumber": "0x6c6137",
          "transactionHash": "0xe6ceb8a36fc3141a61a684f2b6f0e179472af8d3ad8a00a1d3837c0defab237b",
          "transactionIndex": "0x4b",
          "logIndex": "0x5f",
          "removed": false
        },
        {
          "address": "0xf8fb3713d459d7c1018bd0a49d19b4c44290ebe5",
          "topics": [
            "0xddf252ad1be2c89b69c2b068fc378daa952ba7f163c4a11628f55a4df523b3ef",
            "0x000000000000000000000000b1c4bbb65d345e52eadfdafd4c25a90d6272add8",
            "0x0000000000000000000000003ffaf50d4f4e96eb78f2407c090b72e86ecaed24"
          ],
          "data": "0x0000000000000000000000000000000000000000000000000de0b6b3a7640000",
          "blockHash": "0x3868b8782e8acb41a02f640cd6b996c7113bb8a4e6d23252dac9a7e129c30671",
          "blockNumber": "0x6c6137",
          "transactionHash": "0xe6ceb8a36fc3141a61a684f2b6f0e179472af8d3ad8a00a1d3837c0defab237b",
          "transactionIndex": "0x4b",
          "logIndex": "0x60",
          "removed": false
        },
        {
          "address": "0xf8fb3713d459d7c1018bd0a49d19b4c44290ebe5",
          "topics": [
            "0x8c5be1e5ebec7d5bd14f71427d1e84f3dd0314c0f7b2291e5b200ac8c7c3b925",
            "0x000000000000000000000000b1c4bbb65d345e52eadfdafd4c25a90d6272add8",
            "0x0000000000000000000000006ae43d3271ff6888e7fc43fd7321a503ff738951"
          ],
          "data": "0x0000000000000000000000000000000000000000000000000000000000000000",
          "blockHash": "0x3868b8782e8acb41a02f640cd6b996c7113bb8a4e6d23252dac9a7e129c30671",
          "blockNumber": "0x6c6137",
          "transactionHash": "0xe6ceb8a36fc3141a61a684f2b6f0e179472af8d3ad8a00a1d3837c0defab237b",
          "transactionIndex": "0x4b",
          "logIndex": "0x61",
          "removed": false
        },
        {
          "address": "0x6ae43d3271ff6888e7fc43fd7321a503ff738951",
          "topics": [
            "0xa534c8dbe71f871f9f3530e97a74601fea17b426cae02e1c5aee42c96c784051",
            "0x000000000000000000000000f8fb3713d459d7c1018bd0a49d19b4c44290ebe5",
            "0x000000000000000000000000eb4dfb5452266c98e815960d75fe6f97a0a18dc5",
            "0x000000000000000000000000b1c4bbb65d345e52eadfdafd4c25a90d6272add8"
          ],
          "data": "0x0000000000000000000000000000000000000000000000000de0b6b3a76400000000000000000000000000000000000000000000000000000000000000000000",
          "blockHash": "0x3868b8782e8acb41a02f640cd6b996c7113bb8a4e6d23252dac9a7e129c30671",
          "blockNumber": "0x6c6137",
          "transactionHash": "0xe6ceb8a36fc3141a61a684f2b6f0e179472af8d3ad8a00a1d3837c0defab237b",
          "transactionIndex": "0x4b",
          "logIndex": "0x62",
          "removed": false
        }
      ],
      "logsBloom": "0x10020000000000000000000000000000000000000000000000000001000000800000000040000000000000008080000000050000402008020000000000200000000000000001000000000008000000000000000000000000000000000000200000000000020020000000000000000c00000000000000000008000010400000002000000401000000000000000000000000200000000000000000000000000000020000000000020000000000000000000000000000000000000000000000010000000002000000000000002000000000004000000000000000000000000020040010100000000400000000000000000000000000000800000000000000040000",
      "type": "0x2",
      "transactionHash": "0xe6ceb8a36fc3141a61a684f2b6f0e179472af8d3ad8a00a1d3837c0defab237b",
      "transactionIndex": "0x4b",
      "blockHash": "0x3868b8782e8acb41a02f640cd6b996c7113bb8a4e6d23252dac9a7e129c30671",
      "blockNumber": "0x6c6137",
      "gasUsed": "0x2a4e3",
      "effectiveGasPrice": "0x5b08bd23",
      "from": "0xeb4dfb5452266c98e815960d75fe6f97a0a18dc5",
      "to": "0xb1c4bbb65d345e52eadfdafd4c25a90d6272add8",
      "contractAddress": null
    },
    {
      "status": "0x1",
      "cumulativeGasUsed": "0x1059b2d",
      "logs": [
        {
          "address": "0x29598b72eb5cebd806c5dcd549490fda35b13cd8",
          "topics": [
            "0x8c5be1e5ebec7d5bd14f71427d1e84f3dd0314c0f7b2291e5b200ac8c7c3b925",
            "0x000000000000000000000000eb4dfb5452266c98e815960d75fe6f97a0a18dc5",
            "0x000000000000000000000000b1c4bbb65d345e52eadfdafd4c25a90d6272add8"
          ],
          "data": "0xffffffffffffffffffffffffffffffffffffffffffffffffffffffffffffffff",
          "blockHash": "0x3868b8782e8acb41a02f640cd6b996c7113bb8a4e6d23252dac9a7e129c30671",
          "blockNumber": "0x6c6137",
          "transactionHash": "0xbcc5c4b982df46dc5133041871f5965df01bbfb2001b84d136187443dfb65b74",
          "transactionIndex": "0x4c",
          "logIndex": "0x63",
          "removed": false
        }
      ],
      "logsBloom": "0x000000000000000000000000000000000000008000000000000000010000000000000000000000000000000080800000000000000000080000000000002000000000000000000000000000000000000000000000000000000000a0000000000000000000000000000000000000000000000000000000000000000000000000000000000400000000000000000000000000000000000000000000000000000000020000000000000000000000000000000000000000000000000000000000000000000000000000000000000000000000000000000000000000000000000000000010000000000400000000000000000000000000000000000000000000000000",
      "type": "0x2",
      "transactionHash": "0xbcc5c4b982df46dc5133041871f5965df01bbfb2001b84d136187443dfb65b74",
      "transactionIndex": "0x4c",
      "blockHash": "0x3868b8782e8acb41a02f640cd6b996c7113bb8a4e6d23252dac9a7e129c30671",
      "blockNumber": "0x6c6137",
      "gasUsed": "0xc94c",
      "effectiveGasPrice": "0x5b08bd23",
      "from": "0xeb4dfb5452266c98e815960d75fe6f97a0a18dc5",
      "to": "0x29598b72eb5cebd806c5dcd549490fda35b13cd8",
      "contractAddress": null
    },
    {
      "status": "0x1",
      "cumulativeGasUsed": "0x10b4fc6",
      "logs": [
        {
          "address": "0x29598b72eb5cebd806c5dcd549490fda35b13cd8",
          "topics": [
            "0x8c5be1e5ebec7d5bd14f71427d1e84f3dd0314c0f7b2291e5b200ac8c7c3b925",
            "0x000000000000000000000000eb4dfb5452266c98e815960d75fe6f97a0a18dc5",
            "0x000000000000000000000000b1c4bbb65d345e52eadfdafd4c25a90d6272add8"
          ],
          "data": "0xfffffffffffffffffffffffffffffffffffffffffffffffa9438a1d29cefffff",
          "blockHash": "0x3868b8782e8acb41a02f640cd6b996c7113bb8a4e6d23252dac9a7e129c30671",
          "blockNumber": "0x6c6137",
          "transactionHash": "0x42caa7c133ed7b4ad2b2affe8169596758e556b8b4cb66546b917ad283359625",
          "transactionIndex": "0x4d",
          "logIndex": "0x64",
          "removed": false
        },
        {
          "address": "0x29598b72eb5cebd806c5dcd549490fda35b13cd8",
          "topics": [
            "0xddf252ad1be2c89b69c2b068fc378daa952ba7f163c4a11628f55a4df523b3ef",
            "0x000000000000000000000000eb4dfb5452266c98e815960d75fe6f97a0a18dc5",
            "0x000000000000000000000000b1c4bbb65d345e52eadfdafd4c25a90d6272add8"
          ],
          "data": "0x0000000000000000000000000000000000000000000000056bc75e2d63100000",
          "blockHash": "0x3868b8782e8acb41a02f640cd6b996c7113bb8a4e6d23252dac9a7e129c30671",
          "blockNumber": "0x6c6137",
          "transactionHash": "0x42caa7c133ed7b4ad2b2affe8169596758e556b8b4cb66546b917ad283359625",
          "transactionIndex": "0x4d",
          "logIndex": "0x65",
          "removed": false
        },
        {
          "address": "0x6ae43d3271ff6888e7fc43fd7321a503ff738951",
          "topics": [
            "0x00058a56ea94653cdf4f152d227ace22d4c00ad99e2a43f58cb7d9e3feb295f2",
            "0x000000000000000000000000ff34b3d4aee8ddcd6f9afffb6fe49bd371b8a357",
            "0x000000000000000000000000b1c4bbb65d345e52eadfdafd4c25a90d6272add8"
          ],
          "data": "0x",
          "blockHash": "0x3868b8782e8acb41a02f640cd6b996c7113bb8a4e6d23252dac9a7e129c30671",
          "blockNumber": "0x6c6137",
          "transactionHash": "0x42caa7c133ed7b4ad2b2affe8169596758e556b8b4cb66546b917ad283359625",
          "transactionIndex": "0x4d",
          "logIndex": "0x66",
          "removed": false
        },
        {
          "address": "0x29598b72eb5cebd806c5dcd549490fda35b13cd8",
          "topics": [
            "0x4beccb90f994c31aced7a23b5611020728a23d8ec5cddd1a3e9d97b96fda8666",
            "0x000000000000000000000000eb4dfb5452266c98e815960d75fe6f97a0a18dc5",
            "0x000000000000000000000000b1c4bbb65d345e52eadfdafd4c25a90d6272add8"
          ],
          "data": "0x0000000000000000000000000000000000000000000000046a6aafc77d005d0d000000000000000000000000000000000000000003f7813ebb9323a3f764e629",
          "blockHash": "0x3868b8782e8acb41a02f640cd6b996c7113bb8a4e6d23252dac9a7e129c30671",
          "blockNumber": "0x6c6137",
          "transactionHash": "0x42caa7c133ed7b4ad2b2affe8169596758e556b8b4cb66546b917ad283359625",
          "transactionIndex": "0x4d",
          "logIndex": "0x67",
          "removed": false
        },
        {
          "address": "0x6ae43d3271ff6888e7fc43fd7321a503ff738951",
          "topics": [
            "0x804c9b842b2748a22bb64b345453a3de7ca54a6ca45ce00d415894979e22897a",
            "0x000000000000000000000000ff34b3d4aee8ddcd6f9afffb6fe49bd371b8a357"
          ],
          "data": "0x0000000000000000000000000000000000000000021e0c1e7feaf4e88858554b0000000000000000000000000000000000000000027210141870b441363a0bca00000000000000000000000000000000000000000265a7b47752b254c73a0bca000000000000000000000000000000000000000003f7813ebb9323a3f764e6290000000000000000000000000000000000000000041efe415a9476a2d843f351",
          "blockHash": "0x3868b8782e8acb41a02f640cd6b996c7113bb8a4e6d23252dac9a7e129c30671",
          "blockNumber": "0x6c6137",
          "transactionHash": "0x42caa7c133ed7b4ad2b2affe8169596758e556b8b4cb66546b917ad283359625",
          "transactionIndex": "0x4d",
          "logIndex": "0x68",
          "removed": false
        },
        {
          "address": "0x6ae43d3271ff6888e7fc43fd7321a503ff738951",
          "topics": [
            "0x44c58d81365b66dd4b1a7f36c25aa97b8c71c361ee4937adc1a00000227db5dd",
            "0x000000000000000000000000ff34b3d4aee8ddcd6f9afffb6fe49bd371b8a357",
            "0x000000000000000000000000b1c4bbb65d345e52eadfdafd4c25a90d6272add8"
          ],
          "data": "0x",
          "blockHash": "0x3868b8782e8acb41a02f640cd6b996c7113bb8a4e6d23252dac9a7e129c30671",
          "blockNumber": "0x6c6137",
          "transactionHash": "0x42caa7c133ed7b4ad2b2affe8169596758e556b8b4cb66546b917ad283359625",
          "transactionIndex": "0x4d",
          "logIndex": "0x69",
          "removed": false
        },
        {
          "address": "0x29598b72eb5cebd806c5dcd549490fda35b13cd8",
          "topics": [
            "0xddf252ad1be2c89b69c2b068fc378daa952ba7f163c4a11628f55a4df523b3ef",
            "0x000000000000000000000000b1c4bbb65d345e52eadfdafd4c25a90d6272add8",
            "0x0000000000000000000000000000000000000000000000000000000000000000"
          ],
          "data": "0x0000000000000000000000000000000000000000000000056bc75e2d63100000",
          "blockHash": "0x3868b8782e8acb41a02f640cd6b996c7113bb8a4e6d23252dac9a7e129c30671",
          "blockNumber": "0x6c6137",
          "transactionHash": "0x42caa7c133ed7b4ad2b2affe8169596758e556b8b4cb66546b917ad283359625",
          "transactionIndex": "0x4d",
          "logIndex": "0x6a",
          "removed": false
        },
        {
          "address": "0x29598b72eb5cebd806c5dcd549490fda35b13cd8",
          "topics": [
            "0x4cf25bc1d991c17529c25213d3cc0cda295eeaad5f13f361969b12ea48015f90",
            "0x000000000000000000000000b1c4bbb65d345e52eadfdafd4c25a90d6272add8",
            "0x000000000000000000000000eb4dfb5452266c98e815960d75fe6f97a0a18dc5"
          ],
          "data": "0x0000000000000000000000000000000000000000000000056bc75e2d631000000000000000000000000000000000000000000000000000000000000000000000000000000000000000000000000000000000000003f7813ebb9323a3f764e629",
          "blockHash": "0x3868b8782e8acb41a02f640cd6b996c7113bb8a4e6d23252dac9a7e129c30671",
          "blockNumber": "0x6c6137",
          "transactionHash": "0x42caa7c133ed7b4ad2b2affe8169596758e556b8b4cb66546b917ad283359625",
          "transactionIndex": "0x4d",
          "logIndex": "0x6b",
          "removed": false
        },
        {
          "address": "0xff34b3d4aee8ddcd6f9afffb6fe49bd371b8a357",
          "topics": [
            "0xddf252ad1be2c89b69c2b068fc378daa952ba7f163c4a11628f55a4df523b3ef",
            "0x00000000000000000000000029598b72eb5cebd806c5dcd549490fda35b13cd8",
            "0x000000000000000000000000eb4dfb5452266c98e815960d75fe6f97a0a18dc5"
          ],
          "data": "0x0000000000000000000000000000000000000000000000056bc75e2d63100000",
          "blockHash": "0x3868b8782e8acb41a02f640cd6b996c7113bb8a4e6d23252dac9a7e129c30671",
          "blockNumber": "0x6c6137",
          "transactionHash": "0x42caa7c133ed7b4ad2b2affe8169596758e556b8b4cb66546b917ad283359625",
          "transactionIndex": "0x4d",
          "logIndex": "0x6c",
          "removed": false
        },
        {
          "address": "0x6ae43d3271ff6888e7fc43fd7321a503ff738951",
          "topics": [
            "0x3115d1449a7b732c986cba18244e897a450f61e1bb8d589cd2e69e6c8924f9f7",
            "0x000000000000000000000000ff34b3d4aee8ddcd6f9afffb6fe49bd371b8a357",
            "0x000000000000000000000000b1c4bbb65d345e52eadfdafd4c25a90d6272add8",
            "0x000000000000000000000000eb4dfb5452266c98e815960d75fe6f97a0a18dc5"
          ],
          "data": "0x0000000000000000000000000000000000000000000000056bc75e2d63100000",
          "blockHash": "0x3868b8782e8acb41a02f640cd6b996c7113bb8a4e6d23252dac9a7e129c30671",
          "blockNumber": "0x6c6137",
          "transactionHash": "0x42caa7c133ed7b4ad2b2affe8169596758e556b8b4cb66546b917ad283359625",
          "transactionIndex": "0x4d",
          "logIndex": "0x6d",
          "removed": false
        }
      ],
      "logsBloom": "0x100000000000080000800002000000000080008000008000020000010000000000000000000000000000000080800000000100000020080000000000002000000000000000000000800000080800000000000000000000000000a0000000000000000000020000000000000000000800000004000000020000000010000000000000000481000000000000000000000000200000080000000000000000000000020000000080000000000000000000000000000800000000000000000002010002000002000010100000002000000000000000000000000000000000000020040010000000000400000080000000000000000000000001000000000000010000",
      "type": "0x2",
      "transactionHash": "0x42caa7c133ed7b4ad2b2affe8169596758e556b8b4cb66546b917ad283359625",
      "transactionIndex": "0x4d",
      "blockHash": "0x3868b8782e8acb41a02f640cd6b996c7113bb8a4e6d23252dac9a7e129c30671",
      "blockNumber": "0x6c6137",
      "gasUsed": "0x5b499",
      "effectiveGasPrice": "0x5b08bd23",
      "from": "0xeb4dfb5452266c98e815960d75fe6f97a0a18dc5",
      "to": "0xb1c4bbb65d345e52eadfdafd4c25a90d6272add8",
      "contractAddress": null
    }
  ],
  "libraries": [],
  "pending": [],
  "returns": {},
  "timestamp": 1731939064,
  "chain": 11155111,
  "commit": "6a2f665"
}