{
  "transactions": [
    {
      "hash": "0x006a565e2cece8226d1854727e1ae93d80f233eadeaf9cb352596ab544a4cffc",
      "transactionType": "CREATE",
      "contractName": "AaveInteraction",
      "contractAddress": "0x74705c5f42b66cb2aa4eabb3d67ecb9ab081ad1e",
      "function": null,
      "arguments": [
        "0x012bAC54348C0E635dCAc9D5FB99f06F24136C9A"
      ],
      "transaction": {
        "from": "0x91935e2e959fb504640280c08530156c67f89479",
        "gas": "0x1397ed",
        "value": "0x0",
        "input": "0x60a060405234801561001057600080fd5b5060405161110938038061110983398101604081905261002f916100cd565b6001600160a01b03811660808190526040805163026b1d5f60e01b8152905163026b1d5f916004808201926020929091908290030181865afa158015610079573d6000803e3d6000fd5b505050506040513d601f19601f8201168201806040525081019061009d91906100cd565b600180546001600160a01b03929092166001600160a01b03199283161790556000805490911633179055506100fd565b6000602082840312156100df57600080fd5b81516001600160a01b03811681146100f657600080fd5b9392505050565b608051610ff161011860003960006101d30152610ff16000f3fe6080604052600436106100dd5760003560e01c80638cd2e0c71161007f578063bf92857c11610059578063bf92857c14610255578063c1bce0b7146102a2578063f2b9fdb8146102c2578063f3fef3a3146102d557600080fd5b80638cd2e0c7146101f55780638da5cb5b1461021557806394bf6fa71461023557600080fd5b8063582ddf03116100bb578063582ddf031461016157806359f83dc914610181578063732a52ee146101a15780638598f9c3146101c157600080fd5b8063095ea7b3146100e25780630be794111461010457806316f0115b14610124575b600080fd5b3480156100ee57600080fd5b506101026100fd366004610c1f565b6102f5565b005b34801561011057600080fd5b5061010261011f366004610c4b565b610371565b34801561013057600080fd5b50600154610144906001600160a01b031681565b6040516001600160a01b0390911681526020015b60405180910390f35b34801561016d57600080fd5b5061010261017c366004610c4b565b610430565b34801561018d57600080fd5b5061010261019c366004610c8c565b6104c4565b3480156101ad57600080fd5b506101446101bc366004610cd2565b610548565b3480156101cd57600080fd5b506101447f000000000000000000000000000000000000000000000000000000000000000081565b34801561020157600080fd5b50610102610210366004610cf6565b6105c7565b34801561022157600080fd5b50600054610144906001600160a01b031681565b34801561024157600080fd5b50610144610250366004610cd2565b6106c4565b34801561026157600080fd5b50610275610270366004610cd2565b610743565b604080519687526020870195909552938501929092526060840152608083015260a082015260c001610158565b3480156102ae57600080fd5b506101026102bd366004610cf6565b6107d2565b6101026102d0366004610c1f565b610970565b3480156102e157600080fd5b506101026102f0366004610c1f565b610ad7565b60015460405163095ea7b360e01b81526001600160a01b039182166004820152602481018390529083169063095ea7b3906044016020604051808303816000875af1158015610348573d6000803e3d6000fd5b505050506040513d601f19601f8201168201806040525081019061036c9190610d2b565b505050565b60405163095ea7b360e01b81526001600160a01b0384811660048301526024820183905283169063095ea7b3906044016020604051808303816000875af11580156103c0573d6000803e3d6000fd5b505050506040513d601f19601f820116820180604052508101906103e49190610d2b565b6104265760405162461bcd60e51b815260206004820152600f60248201526e185c1c1c9bdd985b0819985a5b1959608a1b604482015260640160405180910390fd5b61036c8282610970565b600061043b83610548565b60405163095ea7b360e01b81526001600160a01b03868116600483015260001960248301529192509082169063095ea7b3906044016020604051808303816000875af115801561048f573d6000803e3d6000fd5b505050506040513d601f19601f820116820180604052508101906104b39190610d2b565b506104be8383610ad7565b50505050565b60006104cf846106c4565b604051630c04a8a160e41b81526001600160a01b03878116600483015260001960248301529192509082169063c04a8a1090604401600060405180830381600087803b15801561051e57600080fd5b505af1158015610532573d6000803e3d6000fd5b505050506105418484846107d2565b5050505050565b6001546040516335ea6a7560e01b81526001600160a01b03838116600483015260009283929116906335ea6a75906024016101e060405180830381865afa158015610597573d6000803e3d6000fd5b505050506040513d601f19601f820116820180604052508101906105bb9190610e2c565b61010001519392505050565b60015460405163095ea7b360e01b81526001600160a01b039182166004820152602481018490529084169063095ea7b3906044016020604051808303816000875af115801561061a573d6000803e3d6000fd5b505050506040513d601f19601f8201168201806040525081019061063e9190610d2b565b5060015460405163573ade8160e01b81526001600160a01b03858116600483015260248201859052604482018490523360648301529091169063573ade81906084015b6020604051808303816000875af11580156106a0573d6000803e3d6000fd5b505050506040513d601f19601f820116820180604052508101906104be9190610f58565b6001546040516335ea6a7560e01b81526001600160a01b03838116600483015260009283929116906335ea6a75906024016101e060405180830381865afa158015610713573d6000803e3d6000fd5b505050506040513d601f19601f820116820180604052508101906107379190610e2c565b61014001519392505050565b600154604051632fe4a15f60e21b81526001600160a01b038381166004830152600092839283928392839283929091169063bf92857c9060240160c060405180830381865afa15801561079a573d6000803e3d6000fd5b505050506040513d601f19601f820116820180604052508101906107be9190610f71565b949c939b5091995097509550909350915050565b6001546040516335ea6a7560e01b81526001600160a01b03858116600483015260009216906335ea6a75906024016101e060405180830381865afa15801561081e573d6000803e3d6000fd5b505050506040513d601f19601f820116820180604052508101906108429190610e2c565b610140810151604051630c04a8a160e41b8152306004820152602481018690529192506001600160a01b03169063c04a8a1090604401600060405180830381600087803b15801561089257600080fd5b505af11580156108a6573d6000803e3d6000fd5b505060015460405163a415bcad60e01b81526001600160a01b038881166004830152602482018890526044820187905260006064830152336084830152909116925063a415bcad915060a401600060405180830381600087803b15801561090c57600080fd5b505af1158015610920573d6000803e3d6000fd5b505060408051868152602081018690526001600160a01b03881693503392507fc14e9e6b4d98a542b05a0f6b64acd5f4cbdb914be88432d87486b664e97071a7910160405180910390a350505050565b60015460405163095ea7b360e01b81526001600160a01b039182166004820152602481018390529083169063095ea7b3906044016020604051808303816000875af11580156109c3573d6000803e3d6000fd5b505050506040513d601f19601f820116820180604052508101906109e79190610d2b565b506040516323b872dd60e01b8152336004820152306024820152604481018290526001600160a01b038316906323b872dd906064016020604051808303816000875af1158015610a3b573d6000803e3d6000fd5b505050506040513d601f19601f82011682018060405250810190610a5f9190610d2b565b5060015460405163617ba03760e01b81526001600160a01b03848116600483015260248201849052336044830152600060648301529091169063617ba03790608401600060405180830381600087803b158015610abb57600080fd5b505af1158015610acf573d6000803e3d6000fd5b505050505050565b6001546040516335ea6a7560e01b81526001600160a01b03848116600483015260009216906335ea6a75906024016101e060405180830381865afa158015610b23573d6000803e3d6000fd5b505050506040513d601f19601f82011682018060405250810190610b479190610e2c565b6101008101516040516323b872dd60e01b8152336004820152306024820152604481018590529192506001600160a01b0316906323b872dd906064016020604051808303816000875af1158015610ba2573d6000803e3d6000fd5b505050506040513d601f19601f82011682018060405250810190610bc69190610d2b565b50600154604051631a4ca37b60e21b81526001600160a01b0385811660048301526000196024830152336044830152909116906369328dec90606401610681565b6001600160a01b0381168114610c1c57600080fd5b50565b60008060408385031215610c3257600080fd5b8235610c3d81610c07565b946020939093013593505050565b600080600060608486031215610c6057600080fd5b8335610c6b81610c07565b92506020840135610c7b81610c07565b929592945050506040919091013590565b60008060008060808587031215610ca257600080fd5b8435610cad81610c07565b93506020850135610cbd81610c07565b93969395505050506040820135916060013590565b600060208284031215610ce457600080fd5b8135610cef81610c07565b9392505050565b600080600060608486031215610d0b57600080fd5b8335610d1681610c07565b95602085013595506040909401359392505050565b600060208284031215610d3d57600080fd5b81518015158114610cef57600080fd5b6040516101e0810167ffffffffffffffff81118282101715610d7f57634e487b7160e01b600052604160045260246000fd5b60405290565b600060208284031215610d9757600080fd5b6040516020810167ffffffffffffffff81118282101715610dc857634e487b7160e01b600052604160045260246000fd5b6040529151825250919050565b80516fffffffffffffffffffffffffffffffff81168114610df557600080fd5b919050565b805164ffffffffff81168114610df557600080fd5b805161ffff81168114610df557600080fd5b8051610df581610c07565b60006101e0828403128015610e4057600080fd5b50610e49610d4d565b610e538484610d85565b8152610e6160208401610dd5565b6020820152610e7260408401610dd5565b6040820152610e8360608401610dd5565b6060820152610e9460808401610dd5565b6080820152610ea560a08401610dd5565b60a0820152610eb660c08401610dfa565b60c0820152610ec760e08401610e0f565b60e0820152610ed96101008401610e21565b610100820152610eec6101208401610e21565b610120820152610eff6101408401610e21565b610140820152610f126101608401610e21565b610160820152610f256101808401610dd5565b610180820152610f386101a08401610dd5565b6101a0820152610f4b6101c08401610dd5565b6101c08201529392505050565b600060208284031215610f6a57600080fd5b5051919050565b60008060008060008060c08789031215610f8a57600080fd5b50508451602086015160408701516060880151608089015160a090990151939a92995090979096509450909250905056fea2646970667358221220e337f41bf72eb98544e0f29f8746a3d6bba3574560a0b7300fb33f3f7efeb20564736f6c634300081b0033000000000000000000000000012bac54348c0e635dcac9d5fb99f06f24136c9a",
        "nonce": "0x2c",
        "chainId": "0xaa36a7"
      },
      "additionalContracts": [],
      "isFixedGasLimit": false
    },
    {
      "hash": "0x18f066a5cfcbddc88163362a64cc438771aa539fb57ccd35aeab641a49dcb5ac",
      "transactionType": "CALL",
      "contractName": null,
      "contractAddress": "0xff34b3d4aee8ddcd6f9afffb6fe49bd371b8a357",
      "function": "approve(address,uint256)",
      "arguments": [
        "0x74705c5F42b66cB2AA4EABB3d67Ecb9AB081ad1E",
        "100000000000000000000"
      ],
      "transaction": {
        "from": "0x91935e2e959fb504640280c08530156c67f89479",
        "to": "0xff34b3d4aee8ddcd6f9afffb6fe49bd371b8a357",
        "gas": "0xf99c",
        "value": "0x0",
        "input": "0x095ea7b300000000000000000000000074705c5f42b66cb2aa4eabb3d67ecb9ab081ad1e0000000000000000000000000000000000000000000000056bc75e2d63100000",
        "nonce": "0x2d",
        "chainId": "0xaa36a7"
      },
      "additionalContracts": [],
      "isFixedGasLimit": false
    },
    {
      "hash": "0xd06967c8a3f5590f5a6f733bc4ec6ac724fab77eec7641e3abd3f2c587c490c0",
      "transactionType": "CALL",
      "contractName": "AaveInteraction",
      "contractAddress": "0x74705c5f42b66cb2aa4eabb3d67ecb9ab081ad1e",
      "function": "supply(address,uint256)",
      "arguments": [
        "0xFF34B3d4Aee8ddCd6F9AFFFB6Fe49bD371b8a357",
        "100000000000000000000"
      ],
      "transaction": {
        "from": "0x91935e2e959fb504640280c08530156c67f89479",
        "to": "0x74705c5f42b66cb2aa4eabb3d67ecb9ab081ad1e",
        "gas": "0x42cb1",
        "value": "0x0",
        "input": "0xf2b9fdb8000000000000000000000000ff34b3d4aee8ddcd6f9afffb6fe49bd371b8a3570000000000000000000000000000000000000000000000056bc75e2d63100000",
        "nonce": "0x2e",
        "chainId": "0xaa36a7"
      },
      "additionalContracts": [],
      "isFixedGasLimit": false
    },
    {
      "hash": "0x5c5c826847d11332cbb26c8eb4b450816d02240dd6c22a794f8878bf56bae40c",
      "transactionType": "CALL",
      "contractName": null,
      "contractAddress": "0x34a4d932e722b9dfb492b9d8131127690ce2430b",
      "function": "approveDelegation(address,uint256)",
      "arguments": [
        "0x74705c5F42b66cB2AA4EABB3d67Ecb9AB081ad1E",
        "115792089237316195423570985008687907853269984665640564039457584007913129639935"
      ],
      "transaction": {
        "from": "0x91935e2e959fb504640280c08530156c67f89479",
        "to": "0x34a4d932e722b9dfb492b9d8131127690ce2430b",
        "gas": "0x12345",
        "value": "0x0",
        "input": "0xc04a8a1000000000000000000000000074705c5f42b66cb2aa4eabb3d67ecb9ab081ad1effffffffffffffffffffffffffffffffffffffffffffffffffffffffffffffff",
        "nonce": "0x2f",
        "chainId": "0xaa36a7"
      },
      "additionalContracts": [],
      "isFixedGasLimit": false
    },
    {
      "hash": "0x09758dd6737c47aa752507725a4f9846f3ed69e896dd17ad0856c8838ed0db26",
      "transactionType": "CALL",
      "contractName": "AaveInteraction",
      "contractAddress": "0x74705c5f42b66cb2aa4eabb3d67ecb9ab081ad1e",
      "function": "borrow(address,uint256,uint256)",
      "arguments": [
        "0xf8Fb3713D459D7C1018BD0A49D19b4C44290EBE5",
        "1000000000000000000",
        "2"
      ],
      "transaction": {
        "from": "0x91935e2e959fb504640280c08530156c67f89479",
        "to": "0x74705c5f42b66cb2aa4eabb3d67ecb9ab081ad1e",
        "gas": "0x6a796",
        "value": "0x0",
        "input": "0xc1bce0b7000000000000000000000000f8fb3713d459d7c1018bd0a49d19b4c44290ebe50000000000000000000000000000000000000000000000000de0b6b3a76400000000000000000000000000000000000000000000000000000000000000000002",
        "nonce": "0x30",
        "chainId": "0xaa36a7"
      },
      "additionalContracts": [],
      "isFixedGasLimit": false
    },
    {
      "hash": "0x80738a81c98d68b308cf1a2683528ab02e8eb9198e0bbbd1758f685dbe4d23ff",
      "transactionType": "CALL",
      "contractName": "AaveInteraction",
      "contractAddress": "0x74705c5f42b66cb2aa4eabb3d67ecb9ab081ad1e",
      "function": "repay(address,uint256,uint256)",
      "arguments": [
        "0xf8Fb3713D459D7C1018BD0A49D19b4C44290EBE5",
        "1000000000000000000",
        "2"
      ],
      "transaction": {
        "from": "0x91935e2e959fb504640280c08530156c67f89479",
        "to": "0x74705c5f42b66cb2aa4eabb3d67ecb9ab081ad1e",
        "gas": "0x3d0f7",
        "value": "0x0",
        "input": "0x8cd2e0c7000000000000000000000000f8fb3713d459d7c1018bd0a49d19b4c44290ebe50000000000000000000000000000000000000000000000000de0b6b3a76400000000000000000000000000000000000000000000000000000000000000000002",
        "nonce": "0x31",
        "chainId": "0xaa36a7"
      },
      "additionalContracts": [],
      "isFixedGasLimit": false
    },
    {
      "hash": "0xcfa7b99ecffc1d0a8474d3157f2d23c253f17c796747d4f90c61bf4ddcfdaa60",
      "transactionType": "CALL",
      "contractName": null,
      "contractAddress": "0x29598b72eb5cebd806c5dcd549490fda35b13cd8",
      "function": "approve(address,uint256)",
      "arguments": [
        "0x74705c5F42b66cB2AA4EABB3d67Ecb9AB081ad1E",
        "115792089237316195423570985008687907853269984665640564039457584007913129639935"
      ],
      "transaction": {
        "from": "0x91935e2e959fb504640280c08530156c67f89479",
        "to": "0x29598b72eb5cebd806c5dcd549490fda35b13cd8",
        "gas": "0x11609",
        "value": "0x0",
        "input": "0x095ea7b300000000000000000000000074705c5f42b66cb2aa4eabb3d67ecb9ab081ad1effffffffffffffffffffffffffffffffffffffffffffffffffffffffffffffff",
        "nonce": "0x32",
        "chainId": "0xaa36a7"
      },
      "additionalContracts": [],
      "isFixedGasLimit": false
    },
    {
      "hash": "0x4d5e92118229bb2245343cf484702c32feacb071b174143cce5f5f4e7e92301d",
      "transactionType": "CALL",
      "contractName": "AaveInteraction",
      "contractAddress": "0x74705c5f42b66cb2aa4eabb3d67ecb9ab081ad1e",
      "function": "withdraw(address,uint256)",
      "arguments": [
        "0xFF34B3d4Aee8ddCd6F9AFFFB6Fe49bD371b8a357",
        "100000000000000000000"
      ],
      "transaction": {
        "from": "0x91935e2e959fb504640280c08530156c67f89479",
        "to": "0x74705c5f42b66cb2aa4eabb3d67ecb9ab081ad1e",
        "gas": "0x56dca",
        "value": "0x0",
        "input": "0xf3fef3a3000000000000000000000000ff34b3d4aee8ddcd6f9afffb6fe49bd371b8a3570000000000000000000000000000000000000000000000056bc75e2d63100000",
        "nonce": "0x33",
        "chainId": "0xaa36a7"
      },
      "additionalContracts": [],
      "isFixedGasLimit": false
    }
  ],
  "receipts": [
    {
      "status": "0x1",
      "cumulativeGasUsed": "0x74894e",
      "logs": [],
      "logsBloom": "0x00000000000000000000000000000000000000000000000000000000000000000000000000000000000000000000000000000000000000000000000000000000000000000000000000000000000000000000000000000000000000000000000000000000000000000000000000000000000000000000000000000000000000000000000000000000000000000000000000000000000000000000000000000000000000000000000000000000000000000000000000000000000000000000000000000000000000000000000000000000000000000000000000000000000000000000000000000000000000000000000000000000000000000000000000000000",
      "type": "0x2",
      "transactionHash": "0x006a565e2cece8226d1854727e1ae93d80f233eadeaf9cb352596ab544a4cffc",
      "transactionIndex": "0x23",
      "blockHash": "0xa094be79b189f9109e58d45af814d1f07333bdfcd054e76ecc8ce5e901a84bdd",
      "blockNumber": "0x6c83be",
      "gasUsed": "0xf137c",
      "effectiveGasPrice": "0x83af564c",
      "from": "0x91935e2e959fb504640280c08530156c67f89479",
      "to": null,
      "contractAddress": "0x74705c5f42b66cb2aa4eabb3d67ecb9ab081ad1e"
    },
    {
      "status": "0x1",
      "cumulativeGasUsed": "0x753e05",
      "logs": [
        {
          "address": "0xff34b3d4aee8ddcd6f9afffb6fe49bd371b8a357",
          "topics": [
            "0x8c5be1e5ebec7d5bd14f71427d1e84f3dd0314c0f7b2291e5b200ac8c7c3b925",
            "0x00000000000000000000000091935e2e959fb504640280c08530156c67f89479",
            "0x00000000000000000000000074705c5f42b66cb2aa4eabb3d67ecb9ab081ad1e"
          ],
          "data": "0x0000000000000000000000000000000000000000000000056bc75e2d63100000",
          "blockHash": "0xa094be79b189f9109e58d45af814d1f07333bdfcd054e76ecc8ce5e901a84bdd",
          "blockNumber": "0x6c83be",
          "transactionHash": "0x18f066a5cfcbddc88163362a64cc438771aa539fb57ccd35aeab641a49dcb5ac",
          "transactionIndex": "0x24",
          "logIndex": "0x1f",
          "removed": false
        }
      ],
      "logsBloom": "0x00000000000000000000000200000000000100000000000000000000000000000040000000020000000000000000000000000000000000000000000000300000000000000000000000000000000000000000000000000000000000000000000000000000000000000000000000000000000000000000000000000000000000000000000000000000000000000000000000000000000200000000000000000000220000000000000000000000000000000000000800000000000000000000000000000000000000000000000000000000000000000000000000000000000000000010000000000000000000000000000000000000000000000000000000010000",
      "type": "0x2",
      "transactionHash": "0x18f066a5cfcbddc88163362a64cc438771aa539fb57ccd35aeab641a49dcb5ac",
      "transactionIndex": "0x24",
      "blockHash": "0xa094be79b189f9109e58d45af814d1f07333bdfcd054e76ecc8ce5e901a84bdd",
      "blockNumber": "0x6c83be",
      "gasUsed": "0xb4b7",
      "effectiveGasPrice": "0x83af564c",
      "from": "0x91935e2e959fb504640280c08530156c67f89479",
      "to": "0xff34b3d4aee8ddcd6f9afffb6fe49bd371b8a357",
      "contractAddress": null
    },
    {
      "status": "0x1",
      "cumulativeGasUsed": "0x7818c0",
      "logs": [
        {
          "address": "0xff34b3d4aee8ddcd6f9afffb6fe49bd371b8a357",
          "topics": [
            "0x8c5be1e5ebec7d5bd14f71427d1e84f3dd0314c0f7b2291e5b200ac8c7c3b925",
            "0x00000000000000000000000074705c5f42b66cb2aa4eabb3d67ecb9ab081ad1e",
            "0x0000000000000000000000006ae43d3271ff6888e7fc43fd7321a503ff738951"
          ],
          "data": "0x0000000000000000000000000000000000000000000000056bc75e2d63100000",
          "blockHash": "0xa094be79b189f9109e58d45af814d1f07333bdfcd054e76ecc8ce5e901a84bdd",
          "blockNumber": "0x6c83be",
          "transactionHash": "0xd06967c8a3f5590f5a6f733bc4ec6ac724fab77eec7641e3abd3f2c587c490c0",
          "transactionIndex": "0x25",
          "logIndex": "0x20",
          "removed": false
        },
        {
          "address": "0xff34b3d4aee8ddcd6f9afffb6fe49bd371b8a357",
          "topics": [
            "0xddf252ad1be2c89b69c2b068fc378daa952ba7f163c4a11628f55a4df523b3ef",
            "0x00000000000000000000000091935e2e959fb504640280c08530156c67f89479",
            "0x00000000000000000000000074705c5f42b66cb2aa4eabb3d67ecb9ab081ad1e"
          ],
          "data": "0x0000000000000000000000000000000000000000000000056bc75e2d63100000",
          "blockHash": "0xa094be79b189f9109e58d45af814d1f07333bdfcd054e76ecc8ce5e901a84bdd",
          "blockNumber": "0x6c83be",
          "transactionHash": "0xd06967c8a3f5590f5a6f733bc4ec6ac724fab77eec7641e3abd3f2c587c490c0",
          "transactionIndex": "0x25",
          "logIndex": "0x21",
          "removed": false
        },
        {
          "address": "0xff34b3d4aee8ddcd6f9afffb6fe49bd371b8a357",
          "topics": [
            "0x8c5be1e5ebec7d5bd14f71427d1e84f3dd0314c0f7b2291e5b200ac8c7c3b925",
            "0x00000000000000000000000091935e2e959fb504640280c08530156c67f89479",
            "0x00000000000000000000000074705c5f42b66cb2aa4eabb3d67ecb9ab081ad1e"
          ],
          "data": "0x0000000000000000000000000000000000000000000000000000000000000000",
          "blockHash": "0xa094be79b189f9109e58d45af814d1f07333bdfcd054e76ecc8ce5e901a84bdd",
          "blockNumber": "0x6c83be",
          "transactionHash": "0xd06967c8a3f5590f5a6f733bc4ec6ac724fab77eec7641e3abd3f2c587c490c0",
          "transactionIndex": "0x25",
          "logIndex": "0x22",
          "removed": false
        },
        {
          "address": "0x6ae43d3271ff6888e7fc43fd7321a503ff738951",
          "topics": [
            "0x804c9b842b2748a22bb64b345453a3de7ca54a6ca45ce00d415894979e22897a",
            "0x000000000000000000000000ff34b3d4aee8ddcd6f9afffb6fe49bd371b8a357"
          ],
          "data": "0x00000000000000000000000000000000000000000214661f4f2bf83feedba58b00000000000000000000000000000000000000000268eac944b22a5d6f319d390000000000000000000000000000000000000000025c8269a394287100319d39000000000000000000000000000000000000000003f9df52f72bf3fef19570cd00000000000000000000000000000000000000000421c83c2d44cdbcaed57d68",
          "blockHash": "0xa094be79b189f9109e58d45af814d1f07333bdfcd054e76ecc8ce5e901a84bdd",
          "blockNumber": "0x6c83be",
          "transactionHash": "0xd06967c8a3f5590f5a6f733bc4ec6ac724fab77eec7641e3abd3f2c587c490c0",
          "transactionIndex": "0x25",
          "logIndex": "0x23",
          "removed": false
        },
        {
          "address": "0xff34b3d4aee8ddcd6f9afffb6fe49bd371b8a357",
          "topics": [
            "0xddf252ad1be2c89b69c2b068fc378daa952ba7f163c4a11628f55a4df523b3ef",
            "0x00000000000000000000000074705c5f42b66cb2aa4eabb3d67ecb9ab081ad1e",
            "0x00000000000000000000000029598b72eb5cebd806c5dcd549490fda35b13cd8"
          ],
          "data": "0x0000000000000000000000000000000000000000000000056bc75e2d63100000",
          "blockHash": "0xa094be79b189f9109e58d45af814d1f07333bdfcd054e76ecc8ce5e901a84bdd",
          "blockNumber": "0x6c83be",
          "transactionHash": "0xd06967c8a3f5590f5a6f733bc4ec6ac724fab77eec7641e3abd3f2c587c490c0",
          "transactionIndex": "0x25",
          "logIndex": "0x24",
          "removed": false
        },
        {
          "address": "0xff34b3d4aee8ddcd6f9afffb6fe49bd371b8a357",
          "topics": [
            "0x8c5be1e5ebec7d5bd14f71427d1e84f3dd0314c0f7b2291e5b200ac8c7c3b925",
            "0x00000000000000000000000074705c5f42b66cb2aa4eabb3d67ecb9ab081ad1e",
            "0x0000000000000000000000006ae43d3271ff6888e7fc43fd7321a503ff738951"
          ],
          "data": "0x0000000000000000000000000000000000000000000000000000000000000000",
          "blockHash": "0xa094be79b189f9109e58d45af814d1f07333bdfcd054e76ecc8ce5e901a84bdd",
          "blockNumber": "0x6c83be",
          "transactionHash": "0xd06967c8a3f5590f5a6f733bc4ec6ac724fab77eec7641e3abd3f2c587c490c0",
          "transactionIndex": "0x25",
          "logIndex": "0x25",
          "removed": false
        },
        {
          "address": "0x29598b72eb5cebd806c5dcd549490fda35b13cd8",
          "topics": [
            "0xddf252ad1be2c89b69c2b068fc378daa952ba7f163c4a11628f55a4df523b3ef",
            "0x0000000000000000000000000000000000000000000000000000000000000000",
            "0x00000000000000000000000091935e2e959fb504640280c08530156c67f89479"
          ],
          "data": "0x0000000000000000000000000000000000000000000000056f21bb348f285001",
          "blockHash": "0xa094be79b189f9109e58d45af814d1f07333bdfcd054e76ecc8ce5e901a84bdd",
          "blockNumber": "0x6c83be",
          "transactionHash": "0xd06967c8a3f5590f5a6f733bc4ec6ac724fab77eec7641e3abd3f2c587c490c0",
          "transactionIndex": "0x25",
          "logIndex": "0x26",
          "removed": false
        },
        {
          "address": "0x29598b72eb5cebd806c5dcd549490fda35b13cd8",
          "topics": [
            "0x458f5fa412d0f69b08dd84872b0215675cc67bc1d5b6fd93300a1c3878b86196",
            "0x00000000000000000000000074705c5f42b66cb2aa4eabb3d67ecb9ab081ad1e",
            "0x00000000000000000000000091935e2e959fb504640280c08530156c67f89479"
          ],
          "data": "0x0000000000000000000000000000000000000000000000056f21bb348f285001000000000000000000000000000000000000000000000000035a5d072c185001000000000000000000000000000000000000000003f9df52f72bf3fef19570cd",
          "blockHash": "0xa094be79b189f9109e58d45af814d1f07333bdfcd054e76ecc8ce5e901a84bdd",
          "blockNumber": "0x6c83be",
          "transactionHash": "0xd06967c8a3f5590f5a6f733bc4ec6ac724fab77eec7641e3abd3f2c587c490c0",
          "transactionIndex": "0x25",
          "logIndex": "0x27",
          "removed": false
        },
        {
          "address": "0x6ae43d3271ff6888e7fc43fd7321a503ff738951",
          "topics": [
            "0x2b627736bca15cd5381dcf80b0bf11fd197d01a037c52b927a881a10fb73ba61",
            "0x000000000000000000000000ff34b3d4aee8ddcd6f9afffb6fe49bd371b8a357",
            "0x00000000000000000000000091935e2e959fb504640280c08530156c67f89479",
            "0x0000000000000000000000000000000000000000000000000000000000000000"
          ],
          "data": "0x00000000000000000000000074705c5f42b66cb2aa4eabb3d67ecb9ab081ad1e0000000000000000000000000000000000000000000000056bc75e2d63100000",
          "blockHash": "0xa094be79b189f9109e58d45af814d1f07333bdfcd054e76ecc8ce5e901a84bdd",
          "blockNumber": "0x6c83be",
          "transactionHash": "0xd06967c8a3f5590f5a6f733bc4ec6ac724fab77eec7641e3abd3f2c587c490c0",
          "transactionIndex": "0x25",
          "logIndex": "0x28",
          "removed": false
        }
      ],
      "logsBloom": "0x000000000000000000000002000000000001008000008000000000000000000000400000000200000000000000040000000400000020000000000000003000000000000000000000000000080800000000000000000000000000a0040000200000000000020000000000000000000800000000000000000000000010000000002000000001000000000000000000000000200000000200000000000000000000220000000000000000000000000000000000000800000000000000000002010002000002000010000000002040000000000000000000000000000000000020000010000000000000000000000000000040000000000001000000400000010000",
      "type": "0x2",
      "transactionHash": "0xd06967c8a3f5590f5a6f733bc4ec6ac724fab77eec7641e3abd3f2c587c490c0",
      "transactionIndex": "0x25",
      "blockHash": "0xa094be79b189f9109e58d45af814d1f07333bdfcd054e76ecc8ce5e901a84bdd",
      "blockNumber": "0x6c83be",
      "gasUsed": "0x2dabb",
      "effectiveGasPrice": "0x83af564c",
      "from": "0x91935e2e959fb504640280c08530156c67f89479",
      "to": "0x74705c5f42b66cb2aa4eabb3d67ecb9ab081ad1e",
      "contractAddress": null
    },
    {
      "status": "0x1",
      "cumulativeGasUsed": "0x78eba0",
      "logs": [
        {
          "address": "0x34a4d932e722b9dfb492b9d8131127690ce2430b",
          "topics": [
            "0xda919360433220e13b51e8c211e490d148e61a3bd53de8c097194e458b97f3e1",
            "0x00000000000000000000000091935e2e959fb504640280c08530156c67f89479",
            "0x00000000000000000000000074705c5f42b66cb2aa4eabb3d67ecb9ab081ad1e",
            "0x000000000000000000000000f8fb3713d459d7c1018bd0a49d19b4c44290ebe5"
          ],
          "data": "0xffffffffffffffffffffffffffffffffffffffffffffffffffffffffffffffff",
          "blockHash": "0xa094be79b189f9109e58d45af814d1f07333bdfcd054e76ecc8ce5e901a84bdd",
          "blockNumber": "0x6c83be",
          "transactionHash": "0x5c5c826847d11332cbb26c8eb4b450816d02240dd6c22a794f8878bf56bae40c",
          "transactionIndex": "0x26",
          "logIndex": "0x29",
          "removed": false
        }
      ],
      "logsBloom": "0x00020000000000000000000000000000000100000000000000000000000000000040000040020000000000000000000000000000000000000000000000100000000000000001000000000000000000000000000000000000000000000000100000000000000020000000000000000000000000000000000000000000000000000000000000000000000000000000000000000000000200000000000000000000200000000000020000000000800000000000000000000000000000000000000000000000000000000000000000000000004000000000000000000000000000000000000000000000000000000000000100000000000000000000000000000000",
      "type": "0x2",
      "transactionHash": "0x5c5c826847d11332cbb26c8eb4b450816d02240dd6c22a794f8878bf56bae40c",
      "transactionIndex": "0x26",
      "blockHash": "0xa094be79b189f9109e58d45af814d1f07333bdfcd054e76ecc8ce5e901a84bdd",
      "blockNumber": "0x6c83be",
      "gasUsed": "0xd2e0",
      "effectiveGasPrice": "0x83af564c",
      "from": "0x91935e2e959fb504640280c08530156c67f89479",
      "to": "0x34a4d932e722b9dfb492b9d8131127690ce2430b",
      "contractAddress": null
    },
    {
      "status": "0x1",
      "cumulativeGasUsed": "0x7dbcff",
      "logs": [
        {
          "address": "0x34a4d932e722b9dfb492b9d8131127690ce2430b",
          "topics": [
            "0xda919360433220e13b51e8c211e490d148e61a3bd53de8c097194e458b97f3e1",
            "0x00000000000000000000000074705c5f42b66cb2aa4eabb3d67ecb9ab081ad1e",
            "0x00000000000000000000000074705c5f42b66cb2aa4eabb3d67ecb9ab081ad1e",
            "0x000000000000000000000000f8fb3713d459d7c1018bd0a49d19b4c44290ebe5"
          ],
          "data": "0x0000000000000000000000000000000000000000000000000de0b6b3a7640000",
          "blockHash": "0xa094be79b189f9109e58d45af814d1f07333bdfcd054e76ecc8ce5e901a84bdd",
          "blockNumber": "0x6c83be",
          "transactionHash": "0x09758dd6737c47aa752507725a4f9846f3ed69e896dd17ad0856c8838ed0db26",
          "transactionIndex": "0x27",
          "logIndex": "0x2a",
          "removed": false
        },
        {
          "address": "0x34a4d932e722b9dfb492b9d8131127690ce2430b",
          "topics": [
            "0xda919360433220e13b51e8c211e490d148e61a3bd53de8c097194e458b97f3e1",
            "0x00000000000000000000000091935e2e959fb504640280c08530156c67f89479",
            "0x00000000000000000000000074705c5f42b66cb2aa4eabb3d67ecb9ab081ad1e",
            "0x000000000000000000000000f8fb3713d459d7c1018bd0a49d19b4c44290ebe5"
          ],
          "data": "0xfffffffffffffffffffffffffffffffffffffffffffffffff21f494c589bffff",
          "blockHash": "0xa094be79b189f9109e58d45af814d1f07333bdfcd054e76ecc8ce5e901a84bdd",
          "blockNumber": "0x6c83be",
          "transactionHash": "0x09758dd6737c47aa752507725a4f9846f3ed69e896dd17ad0856c8838ed0db26",
          "transactionIndex": "0x27",
          "logIndex": "0x2b",
          "removed": false
        },
        {
          "address": "0x34a4d932e722b9dfb492b9d8131127690ce2430b",
          "topics": [
            "0xddf252ad1be2c89b69c2b068fc378daa952ba7f163c4a11628f55a4df523b3ef",
            "0x0000000000000000000000000000000000000000000000000000000000000000",
            "0x00000000000000000000000091935e2e959fb504640280c08530156c67f89479"
          ],
          "data": "0x0000000000000000000000000000000000000000000000000de0b6b3a7640000",
          "blockHash": "0xa094be79b189f9109e58d45af814d1f07333bdfcd054e76ecc8ce5e901a84bdd",
          "blockNumber": "0x6c83be",
          "transactionHash": "0x09758dd6737c47aa752507725a4f9846f3ed69e896dd17ad0856c8838ed0db26",
          "transactionIndex": "0x27",
          "logIndex": "0x2c",
          "removed": false
        },
        {
          "address": "0x34a4d932e722b9dfb492b9d8131127690ce2430b",
          "topics": [
            "0x458f5fa412d0f69b08dd84872b0215675cc67bc1d5b6fd93300a1c3878b86196",
            "0x00000000000000000000000074705c5f42b66cb2aa4eabb3d67ecb9ab081ad1e",
            "0x00000000000000000000000091935e2e959fb504640280c08530156c67f89479"
          ],
          "data": "0x0000000000000000000000000000000000000000000000000de0b6b3a7640000000000000000000000000000000000000000000000000000000000000000000000000000000000000000000000000000000000000877074d9951805d7f97cbfb",
          "blockHash": "0xa094be79b189f9109e58d45af814d1f07333bdfcd054e76ecc8ce5e901a84bdd",
          "blockNumber": "0x6c83be",
          "transactionHash": "0x09758dd6737c47aa752507725a4f9846f3ed69e896dd17ad0856c8838ed0db26",
          "transactionIndex": "0x27",
          "logIndex": "0x2d",
          "removed": false
        },
        {
          "address": "0x6ae43d3271ff6888e7fc43fd7321a503ff738951",
          "topics": [
            "0x804c9b842b2748a22bb64b345453a3de7ca54a6ca45ce00d415894979e22897a",
            "0x000000000000000000000000f8fb3713d459d7c1018bd0a49d19b4c44290ebe5"
          ],
          "data": "0x00000000000000000000000000000000000000000039a55743c46cc377b86ac5000000000000000000000000000000000000000000e36964167742d4060ddc5700000000000000000000000000000000000000000098f7264fc337496c0ddc57000000000000000000000000000000000000000005b64ff90bf44cd850e30ca100000000000000000000000000000000000000000877074d9951805d7f97cbfb",
          "blockHash": "0xa094be79b189f9109e58d45af814d1f07333bdfcd054e76ecc8ce5e901a84bdd",
          "blockNumber": "0x6c83be",
          "transactionHash": "0x09758dd6737c47aa752507725a4f9846f3ed69e896dd17ad0856c8838ed0db26",
          "transactionIndex": "0x27",
          "logIndex": "0x2e",
          "removed": false
        },
        {
          "address": "0xf8fb3713d459d7c1018bd0a49d19b4c44290ebe5",
          "topics": [
            "0xddf252ad1be2c89b69c2b068fc378daa952ba7f163c4a11628f55a4df523b3ef",
            "0x0000000000000000000000003ffaf50d4f4e96eb78f2407c090b72e86ecaed24",
            "0x00000000000000000000000074705c5f42b66cb2aa4eabb3d67ecb9ab081ad1e"
          ],
          "data": "0x0000000000000000000000000000000000000000000000000de0b6b3a7640000",
          "blockHash": "0xa094be79b189f9109e58d45af814d1f07333bdfcd054e76ecc8ce5e901a84bdd",
          "blockNumber": "0x6c83be",
          "transactionHash": "0x09758dd6737c47aa752507725a4f9846f3ed69e896dd17ad0856c8838ed0db26",
          "transactionIndex": "0x27",
          "logIndex": "0x2f",
          "removed": false
        },
        {
          "address": "0x6ae43d3271ff6888e7fc43fd7321a503ff738951",
          "topics": [
            "0xb3d084820fb1a9decffb176436bd02558d15fac9b0ddfed8c465bc7359d7dce0",
            "0x000000000000000000000000f8fb3713d459d7c1018bd0a49d19b4c44290ebe5",
            "0x00000000000000000000000091935e2e959fb504640280c08530156c67f89479",
            "0x0000000000000000000000000000000000000000000000000000000000000000"
          ],
          "data": "0x00000000000000000000000074705c5f42b66cb2aa4eabb3d67ecb9ab081ad1e0000000000000000000000000000000000000000000000000de0b6b3a7640000000000000000000000000000000000000000000000000000000000000000000200000000000000000000000000000000000000000098f7264fc337496c0ddc57",
          "blockHash": "0xa094be79b189f9109e58d45af814d1f07333bdfcd054e76ecc8ce5e901a84bdd",
          "blockNumber": "0x6c83be",
          "transactionHash": "0x09758dd6737c47aa752507725a4f9846f3ed69e896dd17ad0856c8838ed0db26",
          "transactionIndex": "0x27",
          "logIndex": "0x30",
          "removed": false
        },
        {
          "address": "0x74705c5f42b66cb2aa4eabb3d67ecb9ab081ad1e",
          "topics": [
            "0xc14e9e6b4d98a542b05a0f6b64acd5f4cbdb914be88432d87486b664e97071a7",
            "0x00000000000000000000000091935e2e959fb504640280c08530156c67f89479",
            "0x000000000000000000000000f8fb3713d459d7c1018bd0a49d19b4c44290ebe5"
          ],
          "data": "0x0000000000000000000000000000000000000000000000000de0b6b3a76400000000000000000000000000000000000000000000000000000000000000000002",
          "blockHash": "0xa094be79b189f9109e58d45af814d1f07333bdfcd054e76ecc8ce5e901a84bdd",
          "blockNumber": "0x6c83be",
          "transactionHash": "0x09758dd6737c47aa752507725a4f9846f3ed69e896dd17ad0856c8838ed0db26",
          "transactionIndex": "0x27",
          "logIndex": "0x31",
          "removed": false
        }
      ],
      "logsBloom": "0x00020000000000000000000000000020000100000000000000000000000000800040000040020000000000000004000000000000002000020000000000100000000000000001000000000008000000000000000000000000000000042020100000000000020020000000000000000c00000000000000000008000010400000000000000001000040000000000000000000200000000200000000000000000000200000000000020000000000800000000000000000000000000000000000010002000002000001000000002000008000004000000000040000000000000020000000000000000000000000000001000100000000004800000000000000000000",
      "type": "0x2",
      "transactionHash": "0x09758dd6737c47aa752507725a4f9846f3ed69e896dd17ad0856c8838ed0db26",
      "transactionIndex": "0x27",
      "blockHash": "0xa094be79b189f9109e58d45af814d1f07333bdfcd054e76ecc8ce5e901a84bdd",
      "blockNumber": "0x6c83be",
      "gasUsed": "0x4d15f",
      "effectiveGasPrice": "0x83af564c",
      "from": "0x91935e2e959fb504640280c08530156c67f89479",
      "to": "0x74705c5f42b66cb2aa4eabb3d67ecb9ab081ad1e",
      "contractAddress": null
    },
    {
      "status": "0x1",
      "cumulativeGasUsed": "0x80804e",
      "logs": [
        {
          "address": "0xf8fb3713d459d7c1018bd0a49d19b4c44290ebe5",
          "topics": [
            "0x8c5be1e5ebec7d5bd14f71427d1e84f3dd0314c0f7b2291e5b200ac8c7c3b925",
            "0x00000000000000000000000074705c5f42b66cb2aa4eabb3d67ecb9ab081ad1e",
            "0x0000000000000000000000006ae43d3271ff6888e7fc43fd7321a503ff738951"
          ],
          "data": "0x0000000000000000000000000000000000000000000000000de0b6b3a7640000",
          "blockHash": "0xa094be79b189f9109e58d45af814d1f07333bdfcd054e76ecc8ce5e901a84bdd",
          "blockNumber": "0x6c83be",
          "transactionHash": "0x80738a81c98d68b308cf1a2683528ab02e8eb9198e0bbbd1758f685dbe4d23ff",
          "transactionIndex": "0x28",
          "logIndex": "0x32",
          "removed": false
        },
        {
          "address": "0x34a4d932e722b9dfb492b9d8131127690ce2430b",
          "topics": [
            "0xddf252ad1be2c89b69c2b068fc378daa952ba7f163c4a11628f55a4df523b3ef",
            "0x00000000000000000000000091935e2e959fb504640280c08530156c67f89479",
            "0x0000000000000000000000000000000000000000000000000000000000000000"
          ],
          "data": "0x0000000000000000000000000000000000000000000000000de0b6b3a7640000",
          "blockHash": "0xa094be79b189f9109e58d45af814d1f07333bdfcd054e76ecc8ce5e901a84bdd",
          "blockNumber": "0x6c83be",
          "transactionHash": "0x80738a81c98d68b308cf1a2683528ab02e8eb9198e0bbbd1758f685dbe4d23ff",
          "transactionIndex": "0x28",
          "logIndex": "0x33",
          "removed": false
        },
        {
          "address": "0x34a4d932e722b9dfb492b9d8131127690ce2430b",
          "topics": [
            "0x4cf25bc1d991c17529c25213d3cc0cda295eeaad5f13f361969b12ea48015f90",
            "0x00000000000000000000000091935e2e959fb504640280c08530156c67f89479",
            "0x0000000000000000000000000000000000000000000000000000000000000000"
          ],
          "data": "0x0000000000000000000000000000000000000000000000000de0b6b3a7640000000000000000000000000000000000000000000000000000000000000000000000000000000000000000000000000000000000000877074d9951805d7f97cbfb",
          "blockHash": "0xa094be79b189f9109e58d45af814d1f07333bdfcd054e76ecc8ce5e901a84bdd",
          "blockNumber": "0x6c83be",
          "transactionHash": "0x80738a81c98d68b308cf1a2683528ab02e8eb9198e0bbbd1758f685dbe4d23ff",
          "transactionIndex": "0x28",
          "logIndex": "0x34",
          "removed": false
        },
        {
          "address": "0x6ae43d3271ff6888e7fc43fd7321a503ff738951",
          "topics": [
            "0x804c9b842b2748a22bb64b345453a3de7ca54a6ca45ce00d415894979e22897a",
            "0x000000000000000000000000f8fb3713d459d7c1018bd0a49d19b4c44290ebe5"
          ],
          "data": "0x00000000000000000000000000000000000000000039a52537197b803cb21514000000000000000000000000000000000000000000e368e8322975fcd179aac500000000000000000000000000000000000000000098f6aa6b756a723779aac5000000000000000000000000000000000000000005b64ff90bf44cd850e30ca100000000000000000000000000000000000000000877074d9951805d7f97cbfb",
          "blockHash": "0xa094be79b189f9109e58d45af814d1f07333bdfcd054e76ecc8ce5e901a84bdd",
          "blockNumber": "0x6c83be",
          "transactionHash": "0x80738a81c98d68b308cf1a2683528ab02e8eb9198e0bbbd1758f685dbe4d23ff",
          "transactionIndex": "0x28",
          "logIndex": "0x35",
          "removed": false
        },
        {
          "address": "0xf8fb3713d459d7c1018bd0a49d19b4c44290ebe5",
          "topics": [
            "0xddf252ad1be2c89b69c2b068fc378daa952ba7f163c4a11628f55a4df523b3ef",
            "0x00000000000000000000000074705c5f42b66cb2aa4eabb3d67ecb9ab081ad1e",
            "0x0000000000000000000000003ffaf50d4f4e96eb78f2407c090b72e86ecaed24"
          ],
          "data": "0x0000000000000000000000000000000000000000000000000de0b6b3a7640000",
          "blockHash": "0xa094be79b189f9109e58d45af814d1f07333bdfcd054e76ecc8ce5e901a84bdd",
          "blockNumber": "0x6c83be",
          "transactionHash": "0x80738a81c98d68b308cf1a2683528ab02e8eb9198e0bbbd1758f685dbe4d23ff",
          "transactionIndex": "0x28",
          "logIndex": "0x36",
          "removed": false
        },
        {
          "address": "0xf8fb3713d459d7c1018bd0a49d19b4c44290ebe5",
          "topics": [
            "0x8c5be1e5ebec7d5bd14f71427d1e84f3dd0314c0f7b2291e5b200ac8c7c3b925",
            "0x00000000000000000000000074705c5f42b66cb2aa4eabb3d67ecb9ab081ad1e",
            "0x0000000000000000000000006ae43d3271ff6888e7fc43fd7321a503ff738951"
          ],
          "data": "0x0000000000000000000000000000000000000000000000000000000000000000",
          "blockHash": "0xa094be79b189f9109e58d45af814d1f07333bdfcd054e76ecc8ce5e901a84bdd",
          "blockNumber": "0x6c83be",
          "transactionHash": "0x80738a81c98d68b308cf1a2683528ab02e8eb9198e0bbbd1758f685dbe4d23ff",
          "transactionIndex": "0x28",
          "logIndex": "0x37",
          "removed": false
        },
        {
          "address": "0x6ae43d3271ff6888e7fc43fd7321a503ff738951",
          "topics": [
            "0xa534c8dbe71f871f9f3530e97a74601fea17b426cae02e1c5aee42c96c784051",
            "0x000000000000000000000000f8fb3713d459d7c1018bd0a49d19b4c44290ebe5",
            "0x00000000000000000000000091935e2e959fb504640280c08530156c67f89479",
            "0x00000000000000000000000074705c5f42b66cb2aa4eabb3d67ecb9ab081ad1e"
          ],
          "data": "0x0000000000000000000000000000000000000000000000000de0b6b3a76400000000000000000000000000000000000000000000000000000000000000000000",
          "blockHash": "0xa094be79b189f9109e58d45af814d1f07333bdfcd054e76ecc8ce5e901a84bdd",
          "blockNumber": "0x6c83be",
          "transactionHash": "0x80738a81c98d68b308cf1a2683528ab02e8eb9198e0bbbd1758f685dbe4d23ff",
          "transactionIndex": "0x28",
          "logIndex": "0x38",
          "removed": false
        }
      ],
      "logsBloom": "0x10020000000000000000000000000000000100000000000000000000000000800040000040020000000000000000000000050000402000020000000000300000000000000001000000000008000000000000000000000000000000000000200000000000020020000000000000000c00000000000000000008000010400000002000000001000000000000000000000000200000000200000000000000000000220000000000020000000000000000000000000000000000000000000000010000000002000000000000002000000000004000000000000000000000000020040010100000000000000000000000000000000000000800000000000000040000",
      "type": "0x2",
      "transactionHash": "0x80738a81c98d68b308cf1a2683528ab02e8eb9198e0bbbd1758f685dbe4d23ff",
      "transactionIndex": "0x28",
      "blockHash": "0xa094be79b189f9109e58d45af814d1f07333bdfcd054e76ecc8ce5e901a84bdd",
      "blockNumber": "0x6c83be",
      "gasUsed": "0x2c34f",
      "effectiveGasPrice": "0x83af564c",
      "from": "0x91935e2e959fb504640280c08530156c67f89479",
      "to": "0x74705c5f42b66cb2aa4eabb3d67ecb9ab081ad1e",
      "contractAddress": null
    },
    {
      "status": "0x1",
      "cumulativeGasUsed": "0x81499a",
      "logs": [
        {
          "address": "0x29598b72eb5cebd806c5dcd549490fda35b13cd8",
          "topics": [
            "0x8c5be1e5ebec7d5bd14f71427d1e84f3dd0314c0f7b2291e5b200ac8c7c3b925",
            "0x00000000000000000000000091935e2e959fb504640280c08530156c67f89479",
            "0x00000000000000000000000074705c5f42b66cb2aa4eabb3d67ecb9ab081ad1e"
          ],
          "data": "0xffffffffffffffffffffffffffffffffffffffffffffffffffffffffffffffff",
          "blockHash": "0xa094be79b189f9109e58d45af814d1f07333bdfcd054e76ecc8ce5e901a84bdd",
          "blockNumber": "0x6c83be",
          "transactionHash": "0xcfa7b99ecffc1d0a8474d3157f2d23c253f17c796747d4f90c61bf4ddcfdaa60",
          "transactionIndex": "0x29",
          "logIndex": "0x39",
          "removed": false
        }
      ],
      "logsBloom": "0x000000000000000000000000000000000001008000000000000000000000000000400000000200000000000000000000000000000000000000000000003000000000000000000000000000000000000000000000000000000000a0000000000000000000000000000000000000000000000000000000000000000000000000000000000000000000000000000000000000000000000200000000000000000000220000000000000000000000000000000000000000000000000000000000000000000000000000000000000000000000000000000000000000000000000000000010000000000000000000000000000000000000000000000000000000000000",
      "type": "0x2",
      "transactionHash": "0xcfa7b99ecffc1d0a8474d3157f2d23c253f17c796747d4f90c61bf4ddcfdaa60",
      "transactionIndex": "0x29",
      "blockHash": "0xa094be79b189f9109e58d45af814d1f07333bdfcd054e76ecc8ce5e901a84bdd",
      "blockNumber": "0x6c83be",
      "gasUsed": "0xc94c",
      "effectiveGasPrice": "0x83af564c",
      "from": "0x91935e2e959fb504640280c08530156c67f89479",
      "to": "0x29598b72eb5cebd806c5dcd549490fda35b13cd8",
      "contractAddress": null
    },
    {
      "status": "0x1",
      "cumulativeGasUsed": "0x84ffe3",
      "logs": [
        {
          "address": "0x29598b72eb5cebd806c5dcd549490fda35b13cd8",
          "topics": [
            "0x8c5be1e5ebec7d5bd14f71427d1e84f3dd0314c0f7b2291e5b200ac8c7c3b925",
            "0x00000000000000000000000091935e2e959fb504640280c08530156c67f89479",
            "0x00000000000000000000000074705c5f42b66cb2aa4eabb3d67ecb9ab081ad1e"
          ],
          "data": "0xfffffffffffffffffffffffffffffffffffffffffffffffa9438a1d29cefffff",
          "blockHash": "0xa094be79b189f9109e58d45af814d1f07333bdfcd054e76ecc8ce5e901a84bdd",
          "blockNumber": "0x6c83be",
          "transactionHash": "0x4d5e92118229bb2245343cf484702c32feacb071b174143cce5f5f4e7e92301d",
          "transactionIndex": "0x2a",
          "logIndex": "0x3a",
          "removed": false
        },
        {
          "address": "0x29598b72eb5cebd806c5dcd549490fda35b13cd8",
          "topics": [
            "0xddf252ad1be2c89b69c2b068fc378daa952ba7f163c4a11628f55a4df523b3ef",
            "0x00000000000000000000000091935e2e959fb504640280c08530156c67f89479",
            "0x00000000000000000000000074705c5f42b66cb2aa4eabb3d67ecb9ab081ad1e"
          ],
          "data": "0x0000000000000000000000000000000000000000000000056bc75e2d63100000",
          "blockHash": "0xa094be79b189f9109e58d45af814d1f07333bdfcd054e76ecc8ce5e901a84bdd",
          "blockNumber": "0x6c83be",
          "transactionHash": "0x4d5e92118229bb2245343cf484702c32feacb071b174143cce5f5f4e7e92301d",
          "transactionIndex": "0x2a",
          "logIndex": "0x3b",
          "removed": false
        },
        {
          "address": "0x6ae43d3271ff6888e7fc43fd7321a503ff738951",
          "topics": [
            "0x00058a56ea94653cdf4f152d227ace22d4c00ad99e2a43f58cb7d9e3feb295f2",
            "0x000000000000000000000000ff34b3d4aee8ddcd6f9afffb6fe49bd371b8a357",
            "0x00000000000000000000000074705c5f42b66cb2aa4eabb3d67ecb9ab081ad1e"
          ],
          "data": "0x",
          "blockHash": "0xa094be79b189f9109e58d45af814d1f07333bdfcd054e76ecc8ce5e901a84bdd",
          "blockNumber": "0x6c83be",
          "transactionHash": "0x4d5e92118229bb2245343cf484702c32feacb071b174143cce5f5f4e7e92301d",
          "transactionIndex": "0x2a",
          "logIndex": "0x3c",
          "removed": false
        },
        {
          "address": "0x29598b72eb5cebd806c5dcd549490fda35b13cd8",
          "topics": [
            "0x4beccb90f994c31aced7a23b5611020728a23d8ec5cddd1a3e9d97b96fda8666",
            "0x00000000000000000000000091935e2e959fb504640280c08530156c67f89479",
            "0x00000000000000000000000074705c5f42b66cb2aa4eabb3d67ecb9ab081ad1e"
          ],
          "data": "0x00000000000000000000000000000000000000000000000467c99830bac855e6000000000000000000000000000000000000000003f9df52f72bf3fef19570cd",
          "blockHash": "0xa094be79b189f9109e58d45af814d1f07333bdfcd054e76ecc8ce5e901a84bdd",
          "blockNumber": "0x6c83be",
          "transactionHash": "0x4d5e92118229bb2245343cf484702c32feacb071b174143cce5f5f4e7e92301d",
          "transactionIndex": "0x2a",
          "logIndex": "0x3d",
          "removed": false
        },
        {
          "address": "0x6ae43d3271ff6888e7fc43fd7321a503ff738951",
          "topics": [
            "0x804c9b842b2748a22bb64b345453a3de7ca54a6ca45ce00d415894979e22897a",
            "0x000000000000000000000000ff34b3d4aee8ddcd6f9afffb6fe49bd371b8a357"
          ],
          "data": "0x000000000000000000000000000000000000000002146940528de65367ba88a800000000000000000000000000000000000000000268edc1faf035b701e905360000000000000000000000000000000000000000025c856259d233ca92e90536000000000000000000000000000000000000000003f9df52f72bf3fef19570cd00000000000000000000000000000000000000000421c83c2d44cdbcaed57d68",
          "blockHash": "0xa094be79b189f9109e58d45af814d1f07333bdfcd054e76ecc8ce5e901a84bdd",
          "blockNumber": "0x6c83be",
          "transactionHash": "0x4d5e92118229bb2245343cf484702c32feacb071b174143cce5f5f4e7e92301d",
          "transactionIndex": "0x2a",
          "logIndex": "0x3e",
          "removed": false
        },
        {
          "address": "0x6ae43d3271ff6888e7fc43fd7321a503ff738951",
          "topics": [
            "0x44c58d81365b66dd4b1a7f36c25aa97b8c71c361ee4937adc1a00000227db5dd",
            "0x000000000000000000000000ff34b3d4aee8ddcd6f9afffb6fe49bd371b8a357",
            "0x00000000000000000000000074705c5f42b66cb2aa4eabb3d67ecb9ab081ad1e"
          ],
          "data": "0x",
          "blockHash": "0xa094be79b189f9109e58d45af814d1f07333bdfcd054e76ecc8ce5e901a84bdd",
          "blockNumber": "0x6c83be",
          "transactionHash": "0x4d5e92118229bb2245343cf484702c32feacb071b174143cce5f5f4e7e92301d",
          "transactionIndex": "0x2a",
          "logIndex": "0x3f",
          "removed": false
        },
        {
          "address": "0x29598b72eb5cebd806c5dcd549490fda35b13cd8",
          "topics": [
            "0xddf252ad1be2c89b69c2b068fc378daa952ba7f163c4a11628f55a4df523b3ef",
            "0x00000000000000000000000074705c5f42b66cb2aa4eabb3d67ecb9ab081ad1e",
            "0x0000000000000000000000000000000000000000000000000000000000000000"
          ],
          "data": "0x0000000000000000000000000000000000000000000000056bc75e2d63100000",
          "blockHash": "0xa094be79b189f9109e58d45af814d1f07333bdfcd054e76ecc8ce5e901a84bdd",
          "blockNumber": "0x6c83be",
          "transactionHash": "0x4d5e92118229bb2245343cf484702c32feacb071b174143cce5f5f4e7e92301d",
          "transactionIndex": "0x2a",
          "logIndex": "0x40",
          "removed": false
        },
        {
          "address": "0x29598b72eb5cebd806c5dcd549490fda35b13cd8",
          "topics": [
            "0x4cf25bc1d991c17529c25213d3cc0cda295eeaad5f13f361969b12ea48015f90",
            "0x00000000000000000000000074705c5f42b66cb2aa4eabb3d67ecb9ab081ad1e",
            "0x00000000000000000000000091935e2e959fb504640280c08530156c67f89479"
          ],
          "data": "0x0000000000000000000000000000000000000000000000056bc75e2d631000000000000000000000000000000000000000000000000000000000000000000000000000000000000000000000000000000000000003f9df52f72bf3fef19570cd",
          "blockHash": "0xa094be79b189f9109e58d45af814d1f07333bdfcd054e76ecc8ce5e901a84bdd",
          "blockNumber": "0x6c83be",
          "transactionHash": "0x4d5e92118229bb2245343cf484702c32feacb071b174143cce5f5f4e7e92301d",
          "transactionIndex": "0x2a",
          "logIndex": "0x41",
          "removed": false
        },
        {
          "address": "0xff34b3d4aee8ddcd6f9afffb6fe49bd371b8a357",
          "topics": [
            "0xddf252ad1be2c89b69c2b068fc378daa952ba7f163c4a11628f55a4df523b3ef",
            "0x00000000000000000000000029598b72eb5cebd806c5dcd549490fda35b13cd8",
            "0x00000000000000000000000091935e2e959fb504640280c08530156c67f89479"
          ],
          "data": "0x0000000000000000000000000000000000000000000000056bc75e2d63100000",
          "blockHash": "0xa094be79b189f9109e58d45af814d1f07333bdfcd054e76ecc8ce5e901a84bdd",
          "blockNumber": "0x6c83be",
          "transactionHash": "0x4d5e92118229bb2245343cf484702c32feacb071b174143cce5f5f4e7e92301d",
          "transactionIndex": "0x2a",
          "logIndex": "0x42",
          "removed": false
        },
        {
          "address": "0x6ae43d3271ff6888e7fc43fd7321a503ff738951",
          "topics": [
            "0x3115d1449a7b732c986cba18244e897a450f61e1bb8d589cd2e69e6c8924f9f7",
            "0x000000000000000000000000ff34b3d4aee8ddcd6f9afffb6fe49bd371b8a357",
            "0x00000000000000000000000074705c5f42b66cb2aa4eabb3d67ecb9ab081ad1e",
            "0x00000000000000000000000091935e2e959fb504640280c08530156c67f89479"
          ],
          "data": "0x0000000000000000000000000000000000000000000000056bc75e2d63100000",
          "blockHash": "0xa094be79b189f9109e58d45af814d1f07333bdfcd054e76ecc8ce5e901a84bdd",
          "blockNumber": "0x6c83be",
          "transactionHash": "0x4d5e92118229bb2245343cf484702c32feacb071b174143cce5f5f4e7e92301d",
          "transactionIndex": "0x2a",
          "logIndex": "0x43",
          "removed": false
        }
      ],
      "logsBloom": "0x100000000000080000800002000000000081008000008000020000000000000000400000000200000000000000000000000100000020000000000000003000000000000000000000800000080800000000000000000000000000a0000000000000000000020000000000000000000800000004000000020000000010000000000000000081000000000000000000000000200000080200000000000000000000220000000080000000000000000000000000000800000000000000000002010002000002000010100000002000000000000000000000000000000000000020040010000000000000000080000000000000000000000001000000000000010000",
      "type": "0x2",
      "transactionHash": "0x4d5e92118229bb2245343cf484702c32feacb071b174143cce5f5f4e7e92301d",
      "transactionIndex": "0x2a",
      "blockHash": "0xa094be79b189f9109e58d45af814d1f07333bdfcd054e76ecc8ce5e901a84bdd",
      "blockNumber": "0x6c83be",
      "gasUsed": "0x3b649",
      "effectiveGasPrice": "0x83af564c",
      "from": "0x91935e2e959fb504640280c08530156c67f89479",
      "to": "0x74705c5f42b66cb2aa4eabb3d67ecb9ab081ad1e",
      "contractAddress": null
    }
  ],
  "libraries": [],
  "pending": [],
  "returns": {},
  "timestamp": 1732052072,
  "chain": 11155111,
  "commit": "6211d52"
}